:020000040800F2
:100000009836002099010008CF0F0008F90E00086B
:10001000CD0F0008D10C0008D142000800000000FC
:1000200000000000000000000000000001010008C6
:10003000490E00080000000045010008F1390008E1
:10004000B3010008B3010008B3010008B3010008C0
:10005000B3010008B3010008B3010008B3010008B0
:10006000B3010008B3010008B3010008B3010008A0
:10007000B3010008B3010008B3010008B301000890
:10008000B3010008B3010008B3010008B301000880
:10009000B3010008B3010008B3010008B301000870
:1000A000B3010008453A0008B3010008B301000895
:1000B000693A0008893A0008B3010008B301000852
:1000C000B3010008B3010008B3010008B301000840
:1000D000B3010008E13D00088D3F00081941000808
:1000E000B3010008B3010008B3010008DFF80CD029
:1000F00000F0E4FC00480047B152000898360020A8
:10010000224B19680868B0E8F00F80F30988BFF344
:100110006F8F4FF0000080F311884EF00D0E704786
:100120000000000006480068006880F3088862B696
:1001300061B6BFF34F8FBFF36F8F00DF00BF00BF0B
:1001400008ED00E0EFF30980BFF36F8F0F4B1A68E3
:1001500020E9F00F106008B54FF0BF0080F3118860
:10016000BFF34F8FBFF36F8F05F02AFF4FF00000F2
:1001700080F31188BDE8084019680868B0E8F00FFE
:1001800080F30988BFF36F8F704700BF50030020D2
:10019000EFF3058070470000064880470648004797
:1001A000FEE7FEE7FEE7FEE7FEE7FEE7FEE7FEE727
:1001B000FEE7FEE7F5390008ED00000840EA01031C
:1001C0009B0703D009E008C9121F08C0042AFAD20D
:1001D00003E011F8013B00F8013B521EF9D27047D1
:1001E000D2B201E000F8012B491EFBD27047002279
:1001F000F6E710B513460A4604461946FFF7F0FF26
:10020000204610BD421C10F8011B0029FBD1801AAA
:10021000704710B5002200E0521C835C8C5CA34246
:1002200001D1002BF8D1D8B2E1B2401A10BDF0B420
:1002300080EA0102D40F4200B2EB410F02D2024623
:10024000084611464A0042D0C30DDDB2C1F3C75281
:10025000AD1A202D35DAC1F3160141F4000204B1C4
:100260005242C5F1200602FA06F12A411044B3EBCE
:10027000D05F23D0C4B1012DA0EBC35009DCF0BC8A
:100280004FF0004202EAC352DBB200F5000000F07A
:1002900072BB400000F1807000EBC350A0F1807091
:1002A00040EAD170490009E0490841EAC071A0EB79
:1002B000C35000F50000400800EBC350F0BC00F054
:1002C00051BB6142012202EB4101001BF6E7F0BC89
:1002D000704781F00041AAE780F00040A7E780EA7C
:1002E000010210B502F00043400022D04A001FD0A6
:1002F000010E01EB1261C0F35600C2F3560240F446
:10030000000042F40002A0FB022000047F39140424
:1003100000D0401C50EA124001D44000491EC2B235
:100320000C0604EBD010401C4008802A02D003E0E9
:10033000002010BD20F00100002900DA0020184341
:1003400010BD30B480EA010202F0004530F00042F6
:1003500021F0004013D090B1C30DD40DC2F31601AB
:10036000C0F31600E41A41F4000140F400027D34A9
:10037000914201D3641C00E04900002C02DA30BC39
:10038000002070474FF400000023914201D3891AE6
:10039000034340084FEA4101F7D151B1914202D1E4
:1003A0004FF0004105E002D24FF0010101E06FF093
:1003B000010103EBC450284430BC00F0D3BA420022
:1003C00005D0C0F3C7525242914201DC0020704771
:1003D00000EBC15070472DE9FE4F804681EA0300D3
:1003E000C00F0C46009021F0004123F00045B8EB0F
:1003F0000200A94105D24046214690461C460B46C4
:10040000024623F00040104347D0270DC7F30A00EF
:10041000C3F30A510290401A019040286BDAC3F3EB
:10042000130040F4801B0098924620B10023D2EBC9
:10043000030A63EB0B0B01985946C0F1400250468A
:1004400000F05FFA06460D4650465946019A00F004
:1004500077FA10EB08006141002487EA115284EA20
:10046000E7731A4340D0009A62B3019A012A4FEA17
:10047000075215DC001B61EB02014FF0004202EA5B
:100480000752CDE90042001C41F5801132462B464F
:1004900000F0AEFA03B0BDE8F08F40462146F9E720
:1004A000001B61EB0201001C41F5801300185B4149
:1004B0002018A2F5001747EB030140EAD570B619E2
:1004C0006D4111E06D084FEA360645EAC0754FEA06
:1004D0000752001B61EB0201001C41F58011490825
:1004E0004FEA30000019514132462B4603B0BDE8B7
:1004F000F04F00F06EBA0098012240000023D0EBCC
:10050000020263EBE073009821464FEAE074B8EB17
:10051000000061EB0401E9E783F000435BE781F051
:10052000004158E72DE9FE4F81EA030404F000443E
:1005300021F0004100944FF0000B23F0004350EAFB
:1005400001045ED052EA03045BD0C3F30A54C1F342
:100550000A552C44A4F2F3340194A0FB0254C1F3D5
:10056000130141F48011C3F3130343F4801301FB1F
:10057000024400FB034E840A970A44EA815447EA86
:100580008357A4FB076802958D0A05FB07854FEA90
:10059000932C04FB0C542705029D4FEA065847EAAA
:1005A0001637B5EB08056EEB070C870E920E47EA7F
:1005B000811742EA8312A7FB0201B6EB0B0164EB41
:1005C00000042B0D43EA0C335E1844EB1C50DA4652
:1005D0005146E7FB0201C5F313044FEA0B3343EA2C
:1005E00014534FEA0432019C43EA0603A4F10C04BD
:1005F0000294009CCDE900B400F0FAF903B0BDE824
:10060000F08F00200146F9E72DE9F04D81EA03045F
:1006100004F0004B21F0004514464FF0000A23F08F
:10062000004150EA050220D054EA01021DD0C5F372
:100630000A570246C5F31303C1F31300C1F30A5668
:1006400040F4801543F48013A7EB0608101BD64630
:1006500008F2FD3873EB050002D308F1010801E050
:1006600092185B41B8F1000F03DA00200146BDE8A3
:10067000F08D00204FF48011064684460EE0171BD3
:1006800073EB050705D3121B63EB050306434CEA26
:10069000010C49084FEA300092185B4150EA01070B
:1006A000EDD152EA030012D082EA040083EA050188
:1006B000084305D0101BAB4106D20122002306E0FF
:1006C00000224FF0004302E06FF0010253101AEBDA
:1006D00006004CEB085110EB0A0041EB0B01BDE8A2
:1006E000F04D00F076B9C10F80EAE0700844CA0707
:1006F0009623002100F03FB996230022114600F016
:100700003AB90EB5C10F80EAE0700844CA0700216B
:1007100040F233438DE80E000A460B4600F068F9BC
:1007200003B000BD00F0004220F00040C10DC0F356
:10073000160040F400007F2901DA00207047962956
:1007400003DCC1F19601C84001E096398840002AD7
:10075000F4D04042704720F00040C10DC0F31600B5
:1007600040F400007F2901DA00207047962903DC5D
:10077000C1F19601C840704796398840704770B5FE
:10078000C1F30A5201F000450024C1F3130140F205
:10079000FF3341F480119A4201DA002070BD40F22B
:1007A00033439A42A2F2334203DC524200F0B8F8DB
:1007B00000E090402C43F1D0404270BD00F0004278
:1007C00030F000400AD0C10D01F56071C0F3160091
:1007D00042EA0151C2084007114370470020014618
:1007E0007047000030B5041E71F1000404DB4FF0C7
:1007F0000044404264EB0101141E73F1000405DB68
:100800001C464FF00043524263EB0403994208BF79
:10081000904230BD01F0004330B421F0004150EA75
:10082000010206D00A0DA2F56072C1F31301002A7D
:1008300002DC30BC00207047440F44EAC104C10010
:10084000E01830BC00EBC25000F08CB8002801DB8F
:10085000C0F10040002901DBC1F100418142704735
:10086000002801DBC0F10040002901DBC1F100419B
:100870008842704730B50B460146002020220124F3
:1008800009E021FA02F59D4205D303FA02F5491B5E
:1008900004FA02F52844151EA2F10102F1DC30BD74
:1008A0002DE9F05F0546002092469B4688460646A5
:1008B000814640241BE0284641464746224600F038
:1008C0002FF853465A46C01A914110D31146184684
:1008D000224600F016F82D1A67EB01084F46224613
:1008E0000120002100F00DF817EB00094E41201EF9
:1008F000A4F10104DFDC484631462A464346BDE800
:10090000F09F202A04DB203A00FA02F10020704711
:100910009140C2F1200320FA03F31943904070473D
:10092000202A04DB203A21FA02F00021704721FA44
:1009300002F3D040C2F120029140084319467047AB
:10094000202A06DBCB17203A41FA02F043EAE07393
:1009500006E041FA02F3D040C2F120029140084380
:10096000194670470029A8BF7047401C490008BFBE
:1009700020F00100704710B4B0FA80FC00FA0CF0CF
:1009800050EA010404BF10BC704749B1CCF1200407
:1009900021FA04F411FA0CF118BF01212143084394
:1009A000A3EB0C01CB1D4FEA00614FEA102042BFC0
:1009B000002010BC704700EBC35010440029A4BFB6
:1009C00010BC7047401C490008BF20F0010010BC5B
:1009D000704710B5141E73F1000408DA401C41F191
:1009E000000192185B411A4301D120F0010010BDB3
:1009F0002DE9F04D92469B4611B1B1FA81F202E029
:100A0000B0FA80F220329046FFF77BFF04460F4693
:100A100040EA0A0041EA0B0153465A46084313D004
:100A2000114653EA010019D0C8F140025046FFF7C1
:100A300077FF05460E46504659464246FFF761FF8E
:100A4000084305D0012004E020463946BDE8F08D7A
:100A50000020054346EAE0762C4337430A986305B5
:100A6000E40AA0EB08000022FD0A44EA47540A30D9
:100A700002D500200146E9E7010510196941DDE9C9
:100A8000084500196941BDE8F04DA2E7C1F30A52DB
:100A9000C1F3130140F2FF3341F480119A4202DAAC
:100AA00000200146704740F233439A42A2F233429B
:100AB00002DC5242FFF734BFFFF723BF064C074D5D
:100AC00006E0E06840F0010394E80700984710341E
:100AD000AC42F6D3FFF70EFBD8840008F884000878
:100AE00070B521F0004303430CD0C1F30A55002434
:100AF000D5EB040564EB0403D617AD1AB34102DB52
:100B00000020014670BD201841EB025170BD0EB5AA
:100B100040F2334102910021CDE900110A460B4613
:100B2000FFF766FF03B000BD70B58C1810F8015BCD
:100B300015F0070301D110F8013B2A1106D110F876
:100B4000012B03E010F8016B01F8016B5B1EF9D17A
:100B50002B0705D40023521E0DD401F8013BFAE700
:100B600010F8013BCB1A921C03E013F8015B01F86B
:100B7000015B521EF9D5A142D8D3002070BD000000
:100B80000978012904D0022905D1034901F0B6BF33
:100B900001494039FAE77047880500201CB505F087
:100BA00011F802202349C401CDE9000100232246A7
:100BB00021A1244805F028FC012802D122A003F03D
:100BC00085FA1C490320091DCDE9000100232246B6
:100BD00022A1254805F018FC012802D123A003F02A
:100BE00075FA144904200831CDE90001002322469A
:100BF00023A1274805F008FC012802D125A003F015
:100C000065FA0C4905200C31CDE90001002322468C
:100C100026A1294805F0F8FB012802D127A003F0FE
:100C200055FA0448001F006805F048F8BDE81C406C
:100C300004F0D6BF18000020444F475F5461736B27
:100C4000000000000D0E0008637265617420444FBF
:100C5000475F5461736B0D0A000000004D4F544F05
:100C6000525F5461736B00006D0F00086372656121
:100C700074204D4F544F525F5461736B0D0A000046
:100C8000456C656374726F5F5461736B00000000A4
:100C90004B0E0008637265617420456C6563747265
:100CA0006F5F5461736B0D0A000000004F4C4544A8
:100CB0005F5461736B0000003D270008637265613B
:100CC00074204F4C45445F5461736B0D0A00000063
:100CD000FEE70029016802D041F0010102E04FF671
:100CE000FE7211400160704701684FF6FE721140BC
:100CF00001600021016041608160C1603149314A79
:100D00000839904203D1486840F00F0006E02D4AB0
:100D10001432904204D1486840F0F00048607047B7
:100D2000284A2832904203D1486840F47060F5E7C1
:100D3000244A3C32904203D1486840F47040EDE7C9
:100D4000204A5032904203D1486840F47020E5E7D1
:100D50001C4A6432904203D1486840F47000DDE7D9
:100D6000184A7832904203D1486840F07060D5E765
:100D7000154A111F904203D1086840F00F0006E0A9
:100D8000114A1432904204D1086840F0F000086023
:100D900070470D4A2832904203D1086840F47060D1
:100DA000F5E7094A3C32904203D1086840F47040AC
:100DB000EDE7054A50329042EAD1086840F47020CD
:100DC000E5E700000800024008040240406880B2E5
:100DD000704730B5026847F6F0739A430C6A8B6827
:100DE0002343D1E904452C4323438C692343CC6935
:100DF00023434C6A23438C6A234313430360CA682A
:100E000042600A6882604968C16030BDCCB00D4C58
:100E10004FF496766D464FF47A7731466846FFF781
:100E2000E6F921880320491E05E014F810202B184C
:100E3000401C03F8032C8142F7DC384604F026FFFF
:100E4000EBE70000C80500207047142004F01EFFE7
:100E5000FBE7F0B5CC78002204F00F03E40601D5DF
:100E60008C7823430C784FF00F0C14F0FF0F4FF0E9
:100E7000010E1BD005680E880EFA02F42640A64229
:100E800010D196000CFA06F725EA070703FA06F5D3
:100E9000CE783D43282E02D0482E02D002E0446195
:100EA00000E00461521C082AE5D305600A88FF2A85
:100EB0001CD94468002202F108060EFA06F50E88D5
:100EC0002E40AE420ED196000CFA06F7BC4303FA50
:100ED00006F7CE783C43282E00D14561CE78482EC7
:100EE00000D10561521C082AE5D34460F0BD0AB167
:100EF0000161704741617047FEE7000038B508782E
:100F00000C46032813D1164DE0682968FFF781F9D4
:100F100070B16968E068FFF77CF9002807D101200B
:100F2000002300901A4619460E4800F003FB38BD16
:100F30000D48A0F5BE71B0F908200B789A42F6D1A1
:100F4000B0F918204B789A42F1D1B0F9280089788D
:100F50008842ECD1BDE838400248A83801F0C2BD53
:100F600034000020B4040020AC010020084C094DDE
:100F7000E088312802D1686804F0CCFFE08832288C
:100F800002D1686804F056FF142004F07FFEEFE7FA
:100F9000C8050020140000200978052913D2DFE8D5
:100FA00001F00305080B0E0007490AE00649283145
:100FB00007E00549683104E00349A83101E002492E
:100FC000FC3101F09BBD70470C040020FEE7704728
:100FD00030B50F23C27801780125F2B1144A1268A6
:100FE00001F1E02102F4E062C2F5E062120AC2F10E
:100FF0000404D3404278A24084781C401443220168
:1010000081F80024007800F01F018D404009800025
:1010100000F1E020C0F8005130BD01F01F00854014
:101020004809800000F1E020C0F8805130BD000088
:101030000CED00E0024908430249086070470000D7
:101040000000FA050CED00E02DE9F0410C4E884659
:1010500007460025002404F00100B84205D14346AC
:1010600032782946204600F049F8641CE4B2802C0E
:10107000F1D36D1CEDB2082DECD3BDE8F08100007A
:10108000240300202DE9F0410D4604461646096868
:101090000068FFF7DBFB2BD029682068FFF719F900
:1010A00020F000401349FFF7D1FB01D228681EE071
:1010B0003046FFF783FB00220F4BFFF7A5FA2668A7
:1010C0000746884631462868FFF703F9FFF776FBA5
:1010D0003A464346FFF798FA05460F463046FFF773
:1010E0006DFB2A463B46FFF776F9FFF793FB20603E
:1010F000BDE8F0819A99193E0000244010B57F2880
:1011000017DC072915DC002813DB002911DB094C4B
:10111000262A04EBC11106D05E2A07D07C2A08D10A
:101120000A5C1A4304E00A5C9A4301E00A5C5A40F4
:101130000A5410BDE809002070B50025002128469A
:1011400001F0DBFA0024002002F029FB641CE4B269
:10115000802CF8D36D1CEDB2082DEFD370BD0000CC
:101160004FF480610148FFF742B80000E809002011
:1011700010B5084C0648606394F82A00FFF7BCFAE3
:10118000A06394F82900FFF7B7FAE06210BD0000F1
:10119000000020C25C0F00202DE9F041164C0D46E6
:1011A0000746D4E90D01FFF751FB16D1134E606BD2
:1011B000B04212D001F0F4F8012810D002280ED06D
:1011C000032806D0042808D17A6812B17878294615
:1011D00090470020A66384F82800BDE8F0812889A4
:1011E00038B10020288194F82900FFF785FA2063A0
:1011F000F3E70120F6E700005C0F0020000020C2AA
:101200002DE9FC41554C05466068007880070DD5F6
:10121000002001F083FA55210020FFF715FFAA21D5
:101220000120FFF711FF012001F078FA60680C340B
:101230004079FFF761FA494902463831081FFFF744
:1012400021FF002001F06AFAA06AFFF76BFA03267B
:101250002627CDE9007602B2617F6623404802F07E
:101260007CF8012001F05AFAA06AFFF75BFACDE999
:10127000007602B2617F6623394802F09CF8A06ACA
:10128000FFF750FA07B2E8681021801C00F04BFD10
:10129000C0F180004110E8681023801C00903A469D
:1012A0002F4802F09FF9A06AFFF73CFA143002B20F
:1012B0002CA00090617F102329480F3102F092F991
:1012C000A06AFFF72FFA143002B227A00090607FC7
:1012D0001023C0F16201224802F084F9A06AFFF7EE
:1012E00021FA1427CDE90076123002B2617F332350
:1012F0001B4802F060F8A06AFFF714FACDE9007607
:101300001230617F02B23323154833310C3C02F0B6
:1013100052F8022001F002FA28890128606B16D0E9
:10132000FFF700FA123005B21049E06AFEF77FFFBE
:10133000FFF7F8F9CDE9007601B233232A460848D1
:1013400002F00BF8BDE8FC41012001F0E7B9FFF71E
:10135000E9F9123005B2E06AEAE700005C0F00200C
:1013600048030020596573004E6F000000004C4296
:1013700070B504461148E0634FF0814020644FF09F
:10138000854060640E48A06494F8270020F00F00A8
:1013900084F82700002084F8250084F82600042023
:1013A00084F824000025074A2946204600F0F9F970
:1013B0006D1CEDB2062DF6D370BD0000000030C2EA
:1013C00000003042420300200022C264012904D000
:1013D000022901D10249016570470249FBE700007B
:1013E0000000C0410000C0C1F8B50D4606461446D5
:1013F0001021104600F097FCC0F18000411010232E
:101400002A4606F13200009402F0ECF8F8BD000024
:101410002DE9F0410446002790F82400884600F0AA
:101420000F003E463D46032821D00ED294F82C10E2
:1014300001F11A01CEB2234901EB4000407800F1DE
:101440001000C5B205F11800C7B294F8240000F0EE
:101450000F00042834D0B8F1000F22D033463A46AA
:101460002946BDE8F04117480C3001F0DFBE54F8C2
:10147000200F217A50F82100102100F054FCC0F117
:101480008000C0F34705217A206850F82100102120
:1014900000F049FC2844C7B2207D1030C6B2203C81
:1014A000D3E7002001F03AF9064833463A46294688
:1014B0000C3001F0BBFEBDE8F041012001F02EB977
:1014C000BDE8F0813C0300202DE9F047044608A860
:1014D000174690E82003DDE90BA2032020701E468A
:1014E000204600F087FF1048A0601048E0601048D8
:1014F000A76120612677002184F82810042084F851
:101500002400256284F8148084F8159084F816A0CD
:1015100010206085182222866022E285618620875D
:101520008020E086BDE8F08771130008711800087C
:10153000051600082DE9F84305468DF800308DF8B2
:1015400001208DF8021015494078DDF82080497897
:1015500008276E46884216D195F82500800610D1DE
:101560000224A86907EB0411325D405E904204D06A
:10157000E1B24346284600F031F9641E64B2002C03
:10158000EFDABDE8F883022007EB0013315CAA69AB
:10159000401E40B2D1520028F6DAF2E75C0F00207C
:1015A00010B5037FFF2921D08B4200D80021124CB7
:1015B00043786478A34216D190F8273062F3010390
:1015C00080F827300023436490F82530012A43F047
:1015D000400380F825300CD04FF08342074B8264E3
:1015E00090F82820DA7080F8281010BD5B1ED9B260
:1015F000DDE7034AF2E700005C0F0020280300202B
:10160000000080C17FB5044600F0CAFE00220092AF
:1016100001920292039294F827100326C1F38103EA
:10162000ABB10425012B2DD0022B0FD104285ED0A5
:10163000032839D00822062301285ED0022874D05E
:10164000042803D16946204600F08EF87FBD0128AA
:101650000CD004280AD002280ED00328F6D1414825
:10166000C2718271204600F0D1FE7FBD21F00C00D6
:10167000001D84F8270034E021F00C00001D84F8E0
:10168000270031E003280FD0042819D001281DD0ED
:101690000228EAD194F82400010725D000F00F00B9
:1016A000401E84F824007FBD84F8245069462046FB
:1016B00000F05AF814F8270F20F00C0020707FBDBE
:1016C00021F00C00083084F827007FBD94F8240036
:1016D00000F00F00401C84F8240000F00F000328E5
:1016E000F3D984F824207FBD84F824607FBD21F0E5
:1016F0000C00001D84F82700A4E794F8240000F0F3
:101700000F0103290AD2A06902EB0112855C03EBE9
:1017100001120123805C2844C2B216E094F828002C
:10172000401CC1B2012219E0FFE794F8240000F048
:101730000F0103290DD2A06902EB0112855C03EBB6
:101740000112805C281AC2B20223204600F046F83B
:101750007FBD94F82800401EC1B202222046FFF748
:101760001FFF7FBD2803002030B490F8242002F032
:101770000F02032A06D2836903EB02123CCA81E8F6
:101780003C0006E00A7090F82830026A52F82320E4
:10179000CA604268002A02D0407830BC104730BC92
:1017A000704730B5052918D880694FEA51034FF0CA
:1017B000080404EB0313C05ECD074FF00A0407D002
:1017C000642390FBF3F503FB150090FBF4F003E0BA
:1017D00090FBF4F304FB1300505430BDF0B5856961
:1017E0000824042704EB011607EB0117EF5FAC5D3B
:1017F00097423CDC022707EB0117EF5F974236DB8D
:10180000944234D0AA5390F8275063F3010580F82E
:1018100027506425B2FBF5F305FB13260A23B6FB1C
:10182000F3F7B4FBF5F605FB1645B5FBF3F501261A
:10183000AF420BD090F8257006EB410506FA05FC87
:1018400047EA0C0780F8257080F82650B2FBF3F5C4
:1018500003FB1522B4FBF3F503FB15439A4206D0B4
:1018600010F8252F49008E40324302704170F0BDC0
:101870002DE9FE4F0446FE480326282700784FF046
:101880000108E8B1CDE90076702304220821F94867
:1018900001F091FDF74E607D203E06F1140771784E
:1018A000B1EB500F6ED8207D00903979B4F92C201F
:1018B0001823F0481C3101F0D5FB207D00906CE02E
:1018C000EB4D68684079FEF717FF024604F14001CE
:1018D000081FFFF7D7FB68684079FEF70DFF024647
:1018E00004F14801081FFFF7CDFBE06BFEF71AFF7C
:1018F000CDE9007602B270230821DE4801F05BFDDD
:101900004FF08241E06BFEF792FCFEF70BFFA085E3
:101910000A21A5F1E000FEF76AFCA069237DB0F979
:101920000810B0F918200291CDE90023B0F9282061
:10193000D1A1A5F1E00002F0CDFCA5F1E00000226C
:1019400000901823114604F12A0001F04BFE606C50
:10195000FEF7E8FEA08694F82810206A50F82120AF
:1019600000212046FFF740FDD4E90F01FEF76EFF8E
:1019700006D1D4E91101FEF769FF01D185F8008095
:10198000BDE8FE8F202500953979B4F92C20182365
:10199000B8481C3101F066FB0095B978B4F92C20E9
:1019A0001823B4481C3101F05DFB617D70788142E1
:1019B00001D1002000E0401C707094F82700C0F3B3
:1019C0008100C0B1012802D002281AD115E0A07D03
:1019D000B178B1EB500F01D8002100E00121204681
:1019E000FFF716FDA17DB078814201D1002000E013
:1019F000401CB07005E0002100E001212046FFF707
:101A000007FD94F82710880743D094F82500820634
:101A100034D0420634D4964A01F00301F171526881
:101A20001278520717D52046FFF7CEFC94F82610FF
:101A300094F8252008FA01F000F03F000240B2714E
:101A40008C4A2046921FFFF7ACFE94F82600401CFB
:101A500084F8260017E000F03F00B0710025854AA9
:101A60002946921F2046FFF79CFE6D1CEDB2062D05
:101A7000F5D3F1792046FFF7A7FC04E0400602D534
:101A800001F00300307294F8270020F0030084F87E
:101A90002700F07970B194F8250080060AD07448C8
:101AA0004068C079FEF728FE024604F15001081F85
:101AB000FFF7E8FA307A70B194F8250040060AD5AD
:101AC0006B484068C079FEF717FE024604F14801F2
:101AD000081FFFF7D7FA04F12A000025BB46019042
:101AE0000120B179A840084204D0F079022842D000
:101AF000012871D05F481823801F405D00F00F015E
:101B00000A20B1FBF0F200FB1210303000901BF8FD
:101B100005100022019801F0A5FA6D1CEDB2062D0A
:101B2000DED3D4E91301FEF791FE23D194F82520EA
:101B300090061FD04E484068007840077ED50123AC
:101B400094F8261003FA01F505F03F0512EA0500A6
:101B5000B07175D0F1792046FFF736FC454A94F80C
:101B60002610921F2046FFF71CFE94F82600401C0A
:101B700084F8260071E0DFF8FC904FF00A0AA9F122
:101B8000060919F8050000F00F01B1FBFAF20AFB93
:101B900012173E493037E06CFEF79BFBFEF7C2FDA3
:101BA00002B20097D8461BF805101823019801F0DF
:101BB00059FA19F8050000F00F00401CB0FBFAF2CA
:101BC0000AFB12073037E06CFEF7ACFD009702B25B
:101BD00018F8051030E0FFE7DFF898804FF00A09A9
:101BE000A8F1060818F8050000F00F01B1FBF9F2A2
:101BF00009FB121725493037E06CFEF718FBFEF79A
:101C000091FD02B20097DA461BF8051018230198DF
:101C100001F028FA18F8050000F00F00401E90FBB4
:101C2000F9F209FB12003030C7B2E06CFEF77AFD22
:101C300000971AF8051002B218236BE707E0FFE7D8
:101C4000491CC9B284F826100629FFF479AF002098
:101C5000F07102F0C00084F8250094F825004006D9
:101C600018D5307A4FF0834101282ED035460FE049
:101C70005C0F0020480300202530326425632530A6
:101C80003264256325303264000000000000C0414A
:101C9000022831D094F82810206A50F82120002121
:101CA0002046FFF7A1FBD4E91101FEF7CFFD7FF439
:101CB00067AE94F8250041067FF562AE00213172CF
:101CC00000F03F0084F825005AE6606CFEF7AFFA9A
:101CD000FEF728FD01B294F82820206A50F822204F
:101CE0002046FFF781FB606CFEF71CFD01B2F07827
:101CF000226A52F82020D3E7606CFEF7EAFAFEF77A
:101D000011FD01B294F82820206A50F822202046C4
:101D1000FFF76AFB606CFEF705FD01B2EA78206A06
:101D200050F82220BCE710B50C46082905D0FEF774
:101D300069FA6043C0F3470010BDFEF763FA00EB99
:101D400040004006000E10BDF8B50121082001F04A
:101D50004FFD14208DF8030003208DF802000D4E76
:101D60004FF48064ADF8004069463046FFF771F8E3
:101D70006500ADF8005069463046FFF76AF8012269
:101D800021463046FFF7B3F8012229463046FFF7D7
:101D9000AEF8F8BD000C01402DE9F047164E0024C6
:101DA00007464FF080084FF40069351528FA04F013
:101DB000384201D0012200E0002249463046FFF7B8
:101DC00096F8012229463046FFF791F8002229466D
:101DD0003046FFF78CF8641CE4B2082CE6D30122ED
:101DE00029463046FFF783F829463046BDE8F047DC
:101DF0000022FFF77CB80000000C014070B5012202
:101E00000B4DD40221462846FFF771F801229602B5
:101E100031462846FFF76BF8002221462846FFF797
:101E200066F831462846BDE870400022FFF75FB8EB
:101E3000000C014070B50A4D4FF4006400222146A9
:101E40002846FFF754F8012291022846FFF74FF881
:101E500021462846BDE870400122FFF748B800003F
:101E6000000C014010B500214FF47A720020401C94
:101E70009042FCD3491C9142F8D3FFF765FFAE2096
:101E800001F07CFCD52001F079FC802001F076FC8B
:101E9000A82001F073FC3F2001F070FCD32001F07A
:101EA0006DFC002001F06AFC402001F067FCA120DD
:101EB00001F064FCC82001F061FCDA2001F05EFC56
:101EC000122001F05BFC812001F058FCCF2001F0D2
:101ED00055FCD92001F052FCF12001F04FFCDB2031
:101EE00001F04CFC302001F049FCA42001F046FC3C
:101EF000A62001F043FC8D2001F040FC142001F0ED
:101F00003DFCAF2001F03AFCBDE81040FFF714B9EA
:101F10007CB50C4605464FF08141FEF788F9FEF787
:101F200001FC02B2E0680090164608230421224812
:101F300001F058FBE0680378242B11D02B2B0FD035
:101F40003D2B0DD07E2B0AD1B4F9080003F09EF989
:101F50000090324608235F21174801F043FB7CBD07
:101F60004FF0804631462846FEF761F90546FEF7F8
:101F7000D9FB02B20C200221CDE9000103465F210A
:101F80000D4801F018FA20890028E8D0314628468B
:101F9000FEF74DF94FF07E51FEF749F9FEF7C2FB0F
:101FA00002B201210620CDE9000107236221024887
:101FB00001F0D3F97CBD00004803002000214FF060
:101FC0008342C0E9081281620163816370470000A7
:101FD00070B5164604460120049A20701D4620461E
:101FE00000F008FA0B48A0600B48E0600B48206145
:101FF0000020607526750420A5616077002005E04B
:10200000A16901EB00110870401CC0B2217D814222
:10201000F6D870BDBD1F0008ED2100082120000882
:102020002DE9F041044600F0BBF96C4A01214FF064
:10203000834502F1D406012818D002285AD003287B
:1020400071D0042833D1627D0C20A36900EB02100B
:102050000825185805EB021533F905E007784FF00D
:10206000060C2B2F7CD03D2F7AD095E030780028BD
:102070001DD0207F00281AD12078042801D182F8B1
:10208000BD10607DA8B1401EC6B266755449606A35
:10209000FEF725F907463046FEF72EFB3946FEF7D8
:1020A000D5FB21D22946606AFEF7C1F86062BDE81F
:1020B000F0817068C07A0028F9D02177207D401E19
:1020C0006075207D617F884209D946486063207D24
:1020D0004021404201EB0010FEF705FBE6E700015E
:1020E0001038FEF700FB03E02946606BFEF7F1F8BD
:1020F0006063DCE730780028D9D0207F0028D6D173
:102100002078042801D182F8BD10227D607D521E06
:10211000904209D17068C07A0028C8D02177002089
:1021200060756062E4E721E0401CC6B266756FF03E
:102130000301606AFEF743F90746607FFEF7DCFAA9
:102140003946FEF7C6F80746701CFEF7D5FA394641
:10215000FEF786FB05D22946606AFEF7BAF8A5E7C6
:1021600009E02946606BFEF762F8C1E72046BDE84A
:10217000F04100F04BB90CEB02129A5A22B1BEF1B9
:10218000000F05D000225A5302783D2A02D003E006
:102190000122F8E7144A117000787E280CD0242818
:1021A00018D06268002A82D0617DA06900EB01111D
:1021B0006078BDE8F04110473172607DA1690CEB99
:1021C00000128A5A002A94D16268002A91D001EB49
:1021D0000011EDE786F8281069E70000880E00205E
:1021E000000080BD00004042280300202DE9FC4192
:1021F00004468169407D0C2202EB0010085808213A
:10220000FFF791FD0830FEF777FAE062607D81010B
:10221000207D401E91FBF0F000B2401CFEF763FAF7
:102220005D4FE06378680079FEF766FA024604F1D4
:102230002401081FFEF726FF78680079FEF75CFA94
:10224000024604F12C01081FFEF71CFF7868007994
:10225000FEF752FA024604F13401081FFEF712FF9E
:1022600078680079FEF748FA024604F13C01081F3D
:10227000FEF708FF052300227B21484800F0D6FF27
:1022800005233F227B21454800F0D0FF4023002258
:102290007D21424801F0BFF9A06BFEF743FA00250B
:1022A00000B2CDE9000505232A467B213B4801F019
:1022B00054F8207F28B1D4E90C01FEF7C7FA00D109
:1022C0002577364E3878203E4FF0000528B347E09A
:1022D0007868407A0028607D0DD00001FEF70CFA86
:1022E00080462846FEF708FA216AFDF7F8FF4146C6
:1022F000FDF7EFFF05E0281AFEF7F5F9216AFDF773
:10230000EEFF616BFDF793FF3061A06900EB0511F3
:102310003069FFF7FDFD6D1CEDB2207DA842D7D8D6
:10232000D4E90801FEF792FA1DD101203870607DD2
:1023300000014042FEF7D7F9616BFDF778FF60625C
:10234000206210E02801FEF7D7F9216AFDF76FFF40
:102350003061A16901EB0511FFF7DAFD6D1CEDB2EB
:10236000207DA842EED8022000F0D8F9A06AFEF73E
:10237000D9F905B2206BFEF7D5F902B2022110207F
:10238000CDE900012B460021044800F0E6FFBDE83E
:10239000FC41012000F0C2B95C0F0020480300207E
:1023A000084A002011795379994209D002F10900B5
:1023B000405C491CC9B21171042901D1002111717D
:1023C000704700002803002030B5094B59791D796A
:1023D0000A46491C01F00304AC4208D003F1090489
:1023E000A054C8B25871042801D10020587130BDE2
:1023F0002803002041700021817042604178024A28
:1024000042F8210070470000E80D00208178034861
:102410004170002181700170704700005C0F002046
:10242000017F027D914201D10021017701490162C2
:1024300041627047000080BF2DE9F0411546DDE99B
:1024400006720446052020701E462046FFF7D2FF84
:1024500025750020A661207767750448A0600448B0
:10246000E06004482061BDE8F081000021240008FC
:10247000952400087924000810B50446FFF790FF62
:10248000032801D0042804D12046BDE81040FFF7FE
:10249000BDBF10BD2DE9F04F8BB0654E0025044641
:1024A000099570688078FEF727F9024609A904F1BA
:1024B0002000FEF7E7FD70688078FEF71DF9024600
:1024C00009A904F12400FEF7DDFD217F207D4FF0F6
:1024D000010A81427ED2A06901EB410200EB820732
:1024E0004FF07E5BB1B3002631E0A06906EB4601F8
:1024F00000EB8105D9465946606AFDF798FE804693
:10250000B5F90600FEF7EFF84146FDF7E8FEFEF7E5
:1025100009F90FFA80F84946206AFDF788FE8146DE
:10252000B5F90400FEF7DFF84946FDF7D8FEFEF7DF
:10253000F9F82A686B7ACDE9003201B2CDF808A02B
:102540002B7A42463B4800F009FE761CF6B2207F0B
:10255000B042CAD85E465946606AFDF768FE054635
:10256000B7F90600FEF7BFF82946FDF7B8FEFEF7FB
:10257000F2F885B23146206AFDF759FE0646B7F9F2
:102580000400FEF7B0F83146FDF7A9FEFEF7CAF8E1
:1025900002B22748BE7A7B7A406841780078C0F35F
:1025A000C000CDE90301CDE90136387A00902B4611
:1025B0002048396800F046FF00280ED0207F401CDC
:1025C000C0B220776168002907D08DF814006078C8
:1025D00005A900E004E0626890470BB0BDE8F08F09
:1025E000607D00F00300012804D00228F5D1002509
:1025F000564615E02577F0E7A06905EB450100EBAD
:1026000081000168427ACDE900210296037AB0F98F
:102610000620B0F90410074800F0A0FD6D1CEDB2D3
:10262000207DA842E8D860680028D6D0207FCCE77B
:102630005C0F00204803002038B504460498009041
:102640002046FFF7C5FC022020700148206138BDFC
:10265000552600082DE9F0410446FFF7E1FC134D33
:102660002878002820D0002108220C260B460127BC
:1026700016E0A06906EB011C50F80CC09CF800C0E5
:10268000BCF13D0F0AD194F815C08C4502EB011C3A
:1026900002D020F80C3001E020F80C70491CC9B2BF
:1026A000207D8842E5D82B70BDE8F081280300200A
:1026B000014800F003B80000E80900202DE9F041CE
:1026C0000746002505F1B000C0B201F057F8002020
:1026D00001F054F8102001F051F8002407EBC51662
:1026E000305D01F05CF8641CE4B2802CF8D36D1C02
:1026F000EDB2082DE6D3BDE8F08110B50C4640F0F0
:10270000B00001F03BF8102040EA141001F036F858
:1027100004F00F00BDE8104001F030B8064930B1B8
:10272000012806D0022801D15E20087070472620BB
:10273000FBE77C20F9E7000024030020DFF8749019
:102740001A4D1B4C1B4E00274FF08008A9F16C0955
:1027500001F0BAFA2088800B20D017A001F0B6FC57
:10276000297816A001F0B2FC2878612806D06228EA
:1027700006D0632816D0642805D115E0042000E0B7
:102780000120FFF721FE278000213046FEF7A1FA45
:10279000C9F8708001213046FEF79BFA142003F03F
:1027A00075FAD5E70220ECE70320EAE7E808002005
:1027B000200300206C000240613F000025630A00F6
:1027C000074A0021C0E90912064AC0E90B2141630A
:1027D0004FF0824181630449C16304490164704739
:1027E000000010420000F0C10000744200001442DA
:1027F0002DE9F0411746DDE9068200251E46044614
:102800000570FFF7F7FD0C48A0600C48E0600C482D
:10281000206184F820502775C4E90668002005E08F
:10282000A16901EB00110870401CC0B2217D8142FA
:10283000F6D8BDE8F0810000C12700083129000862
:102840004528000870B50446FFF7AAFD0025354964
:10285000354E364A052823D2DFE800F02203233B19
:102860004000107800281BD094F8200030B1401EA2
:1028700084F82000A06AFDF7DAFC0EE05068807A48
:1028800000280DD0207D6FF02301401E84F8200029
:10289000207D401E4843FDF726FFA062E663656386
:1028A00070BD10780028FBD0237D94F820005B1EBB
:1028B000984206DA401C84F82000A06AFDF709FD62
:1028C000EBE75068807A0028EAD084F82050A562AF
:1028D000E4E72046BDE87040FFF798BD94F820106B
:1028E0000C23A06903EB01130125C3581B787E2B31
:1028F00002D0242B13D009E0157294F82010A0699F
:10290000062202EB0112825A002AC9D16268002A0B
:10291000C6D000EB01116078BDE87040104782F826
:10292000285070BD00001042000074425C0F00206F
:102930002DE9FE4FDFF8A08104464546D8F8040093
:10294000C078FDF7D9FE024604F12801081FFEF702
:1029500099FB6868C078FDF7CFFE024604F13001AC
:10296000081FFEF78FFB6868C078FDF7C5FE0246BA
:1029700004F13801081FFEF785FB6868C078FDF791
:10298000BBFE024604F14001081FFEF77BFB94F8F2
:1029900020000C22A16902EB00100E58E06BFDF73D
:1029A000C1FE07B21821B01CFFF7BDF9C0F17800D5
:1029B00000EBD0700821B61C01EB600118233A46E9
:1029C0004648009600F00EFE606BFDF7ABFE03B2CA
:1029D00000211B20CDE900012422404800F0BDFC6D
:1029E00028784FF001094FF01E0A4FF0000510B192
:1029F0004E4657466BE0DFF8E8B03BE0D8F80400FD
:102A0000007A002894F8200012D000EBC00080006B
:102A1000FDF772FE06462846FDF76EFE616AFDF779
:102A20005EFC5946FDF703FC3146FDF752FC08E019
:102A3000281AFDF758FE616AFDF751FC5946FDF76B
:102A4000F6FB0646E06AFDF76DFE07B23046FDF77D
:102A500069FEE269C5EB051302EBC302CDF800A0E5
:102A6000CDE9012901B21E233A461C4800F076FB4D
:102A70006D1CEDB2207DA842C0D8D4E90901FDF754
:102A8000E5FE0AD188F8009094F820006FF0230149
:102A90004843FDF728FEA0626062BDE8FE8F606AD1
:102AA000FDF740FE05EBC50100EB8100313001B2BE
:102AB000E069C5EB051200EBC2000097CDE9010605
:102AC0001E230022054800F049FB6D1CEDB2207D5D
:102AD000A842E4D8E1E700005C0F00204803002092
:102AE00000004442002805D041780348417000218D
:102AF00001708170704700005C0F0020002906D033
:102B000088700348497841700021017081707047D6
:102B10005C0F00202DE9F0412349A1F5BA764878F1
:102B200056F8200000283CD00478002514B1012C70
:102B300008D103E090F82030826901E0437D82698A
:102B400002EB03158846C16807468847012C08D068
:102B50003CB198F80100396956F82000BDE8F04111
:102B6000084798F808004446800708D194F82800E0
:102B7000800704D16078396956F82000884760786A
:102B80002A4656F820100848283000F08AFD607860
:102B90002A4656F82010BDE8F0410348083000F0FE
:102BA00080BDBDE8F08100005C0F00200C4878215A
:102BB000C170017141713C2181716421C171012198
:102BC000017241728172C172017821F0080141F0F5
:102BD00007010170042141703221817070470000AB
:102BE000500F002010B5FFF763FD0A4CA07838B1F4
:102BF00001280ED1FEF7B4FABDE81040FFF78ABFF6
:102C00006178054850F8210008B1816888470120A3
:102C1000A07010BD5C0F0020E80D002001817047FE
:102C200010B5114C00200D2120706070A0706172F1
:102C30001022A27220720D4AE2610D4A22620D4AF0
:102C4000626284F8291084F82A1084F828000A485F
:102C5000E0630A4820640A486064FFF7A7FFA4F114
:102C60000C00606010BD00005C0F0020852C000887
:102C7000292D0008A52C0008711100080112000878
:102C80009911000810B5054C0020E060044860610F
:102C9000A07AFDF731FDA06110BD00005C0F00209F
:102CA000000008C22DE9F0411D4D0C460746D5E94C
:102CB0000501FDF7CBFD30D11A4E6869B0422CD02A
:102CC000FFF76EFB012806D002280DD0032815D08F
:102CD000042816D112E0B4F90800B4F902108842B1
:102CE00013DAE188084407E0B4F90800B4F90410E5
:102CF00088420ADDE188401A208106E00021AE61A9
:102D00002972002809D0032807D07A68002A04D045
:102D100078782146BDE8F0411047BDE8F081000019
:102D20005C0F0020000008C22DE9FC41514C054613
:102D300060680078C0070DD00020FFF7EFFC552138
:102D40000020FEF781F9AA210120FEF77DF901207C
:102D5000FFF7E4FCB5F90200B5F90460801BFDF74C
:102D6000C2FC0746B5F90800801BFDF7BCFC3946DC
:102D7000FDF7E7FA4049FDF7B2FA20616068407953
:102D8000FDF7BAFC3B4902461031081FFEF77AF9FD
:102D900060684079FDF7B0FC364902461831081FDB
:102DA000FEF770F90020FFF7B9FC6069FDF7BAFC87
:102DB00002262027CDE9007602B2617A66232F48E9
:102DC00000F0CBFA0120FFF7A9FC6069FDF7AAFC2F
:102DD000CDE9007602B2617A6623284800F0EBFA6A
:102DE0006069FDF79FFC143002B201270720CDE98E
:102DF0000007617A5C232148491D00F0DCFAE06895
:102E0000FDF790FC06B26069FDF78CFC163002B24B
:102E10000320CDE90007617A33461848C91D00F048
:102E20009CFA6069FDF77EFC801C02B2E868102302
:102E3000801C0090617A1148491D00F0D3FBB5F960
:102E4000080002F023FA07466069FDF76BFC801C5E
:102E500006B2E8681021801CFEF765FF617A801DCC
:102E60000144102332460548009700F0BBFBBDE843
:102E7000FC8100005C0F00200000B04248030020ED
:102E800010B5FFF79BF80348002140F8C01F024926
:102E9000416010BD880E00200000BC4238B50446D9
:102EA000049800902046FFF793F804202070034810
:102EB000A0600348E0600348206138BD812E00080F
:102EC000ED2E0008C92E000810B5FFF7A9F8064836
:102ED00090F8BD10002905D0002180F8BB1000F843
:102EE000BA1FC17010BD0000880E00202DE9FC47FC
:102EF0000446FFF77BF9594840688079FDF7FCFBF1
:102F0000564902461039081FFEF7BCF84FF0000979
:102F10002020CDE900094D465E234A46182150483D
:102F200000F049FA1E20CDE900055C230122192199
:102F30004B4800F040FA627DA169484E4FF0080806
:102F400008EB0210D43E085A96F8BB105D2726F80D
:102F5000110096F8BB00401CC0B2B0FBF7F107FBB4
:102F60001100B0FBF7F107FB110186F8BB0096F8E2
:102F7000BA00814202D1401C86F8BA00C0B2B0FB50
:102F8000F7F107FB110086F8BA0086F8BC00D4E917
:102F90000C01FDF75BFC5ED1D4E90801FDF756FC9E
:102FA00059D1012596F8BB1096F8BC00814225D076
:102FB00036F91020401CC0B2B0FBF7F107FB11003E
:102FC00086F8BC00617D0223A06903EB01134FF07A
:102FD000040CC35E0CEB0111405E191A101A40017B
:102FE00090FBF1F0C0F1200002B205F118011C487D
:102FF00000F0B0F96D1CEDB25D2DD3D3627DA169F7
:1030000008EB0210085E02F041F904461821FEF7B1
:103010008AFEC0F15E0101EBD170182101EB600165
:10302000182324220E48009400F0DCFA0220FFF757
:1030300075FBD6F8C000FDF775FB1D21CDE9001921
:1030400003B223221821064800F087F9BDE8FC47A7
:103050000120FFF763BBBDE8FC8700005C0F002088
:10306000480300202DE9F05F06460A989346203871
:103070000C46C0B2082B51D00BF108010FB2102B37
:1030800002D0182B60D11DE03149002501EB00185A
:103090005A4618F805302146304600F01DFB08EB73
:1030A00005003A46037A2146304600F015FB641CC1
:1030B000B6F9040024B2A04246DB6D1CEDB2082D27
:1030C000E6D341E0234A0BF1100100EBC0000025DC
:1030D0000FFA81FA02EB80085A4618F805302146AB
:1030E000304600F0F9FA08EB05093A4699F80C3039
:1030F0002146304600F0F0FA99F818305246214641
:10310000304600F0E9FA641CB6F9040024B2A0428B
:103110001ADB6D1CEDB20C2DDED315E00E4900EB71
:103120004000002501EB40075A467B5D21463046B2
:1031300000F0D2FA641CB6F9040024B2A04203DB0A
:103140006D1CEDB2062DEFD32046BDE8F09F0000C8
:10315000466E0008367400080C6C00082DE9FF5F0D
:103160008146DDE90E081E4692465FEA080156D008
:10317000C11700EB5171C1F3C70721F00701401AD5
:1031800000F0FF0B002522E000241CE00198B9F9B3
:1031900004102044884218DCB9F906200AEBC50166
:1031A00091423CDC109A08EB0403012A05FB06F26D
:1031B00015D0D25CD243D3B20AB201B2484600F075
:1031C0008BFA641CE4B2B442E0DB6D1CEDB2BD428C
:1031D000DAD3BBF1000F22D00024FF251DE0D35C21
:1031E000EAE70198B9F904102044884217DC1099E5
:1031F00007FB06F2012908EB040112D0525C05FA24
:103200000BF18A43D143CBB20AEBC7010AB201B238
:10321000484600F061FA641CE4B2B442E1DBBDE868
:10322000FF9F535C05FA0BF18B43EDE72DE9F0416D
:103230001F460D00804600D50025B8F904009042D5
:1032400000DA0546B8F90600B8420FDB002F0DDBA7
:103250000024561B08E0281901B201233A464046D3
:1032600000F03AFA641CE4B2A642F4DCBDE8F08156
:103270002DE9F05F0C460A9F1E4615468346A34281
:1032800036D0781B311B90FBF1F0002800DC404267
:1032900001282FDAA64202DDA046994603E03D460A
:1032A0009846A1461746EE1BA9EB080A002E00DC43
:1032B0007E1BCAEB460418E0014601232A46584605
:1032C00000F00AFA002C0ADDBD4201DA6D1C00E0B4
:1032D0006D1E04EB46012DB2A1EB4A0401E004EBA4
:1032E000460408F101000FFA80F84046C845E3DDC6
:1032F000BDE8F09FAF4202DD9046B94603E02646A6
:10330000B84691461C46B44201DDA71B00E0371BBE
:10331000A9EB080ACAEB470518E00246012321463B
:10332000584600F0D9F9002D0ADDB44201DA641CD8
:1033300000E0641E05EB470124B2A1EB4A0501E061
:1033400005EB470508F101000FFA80F84046C84533
:10335000E3DDCDE7012300F0BFB92DE9F05F1F46A3
:10336000DDE90A9490468A4683462646B3EB440F2D
:103370001FDBB9EB440F1CDB002518E008EB09004C
:10338000001B03B208EB040002B20AEB050001B215
:10339000584600F040F9B54201D2641EE4B2B81BB1
:1033A000401EA84201DC641CE4B26D1CEDB2BD42BB
:1033B000E4DBBDE8F09F2DE9FF5F9346DDE90E6495
:1033C00088462746B3EB440F39DBB6EB440F36DBB8
:1033D000002508EB030930E015B1701E85420DD1C0
:1033E0000BEB050003B2A9EB0400401C02B208EB92
:1033F000040001B20098FFF719FF12E00BEB050083
:1034000002B208EB040001B292460123009800F0DA
:1034100063F9A9EB040001B252460123009800F0C1
:103420005BF9BD4201D2641EE4B2F01B401EA8420B
:1034300001DC641CE4B26D1CEDB2B542CCDBBDE82E
:10344000FF9F00002DE9FF4F0646002081B0814616
:10345000834604460746009002980E9D9A464FF018
:103460000108002871D026E0B4FBF5F005FB104000
:1034700048B944B1B8F1800F30D04FEA48604FEA04
:103480001068781B87B20298C05D10EA080F0ED052
:10349000B4FBF5F101EB0A0002B2B4FBF5F005FB59
:1034A00010410398084401B23046FFF753FF7F1CD8
:1034B000641CBFB2A4B24A4840888442D4D3029864
:1034C0001199C05D00EA0800084378D010980628DA
:1034D0000ED2DFE800F00609252E3F3C4FF0010830
:1034E000D1E7B6F9000020E0B6F9000026E08346F7
:1034F000009858B3B4FBF5F005FB10410398014464
:103500004945B4FBF5F101EB0A0003B2B4FBF5F059
:1035100005FB10410398084422DA01B24A4621E033
:103520003088B1880844401E00B28146B6F90200D6
:10353000DDE73088B1880844401E00B281467088BB
:10354000F1880844401E00B2D1E743E00EE0B6F92E
:10355000000003E03088B188084400B28146C9E722
:1035600002B249463046FFF761FE28E0B4FBF5F0B1
:1035700005FB10414945B4FBF5F110D001EB0A0001
:1035800002B2B4FBF5F005FB104103984B4608442A
:1035900001B23046CDF800B0FFF76AFE0FE05144AB
:1035A0005945B4FBF5F101EB0A0002DA02B25B46C1
:1035B00001E003B25A464946304600F02CF80F9815
:1035C000074945436D1E4888854206DD129A10441E
:1035D0004880002005B0BDE8F08F01204880F9E761
:1035E000240300202DE9F8431F4690460D46064669
:1035F000089C0BE000903B4642463046FFF732FD08
:103600000146B6F90400641CA84202DB20780028B9
:10361000F0D1BDE8F8832DE9F04715000E460746C6
:1036200002D5002B3BDB0025B7F90600984200DAF3
:103630000346B7F90400B04231DB002E2FDB581BE4
:103640004FF0FF0A072805DA0AFA00F1C843C3B2AF
:103650002A461EE0C11700EB5171C1F3C7080024D0
:1036600021F00701401A00F0FF0909E005EBC40052
:1036700002B2FF233146384600F02EF8641CE4B253
:103680004445F3D30AFA09F0C043C3B205EBC400C2
:1036900002B231463846BDE8F04700F01DB8BDE83B
:1036A000F08770B5044600780E4600F0030015461A
:1036B00001280AD002280DD1A16910468847294661
:1036C0003046E269BDE8704010476169304688477E
:1036D0000220207070BD00002DE9F0410446B0F9D1
:1036E00004000D46A84244DBB4F90600904240DBDA
:1036F000002D3EDB12F1070F3BDD411ED61DB1420E
:1037000003DA811AFF2088408343901D04D350427E
:10371000C340B4F9020002E0B4F902001044C1173A
:1037200000EB5171C1F3C70621F00701401A10F0F8
:10373000FF0003FA00F101F0FF0CC0F1080123FAC9
:1037400001F70D4920880A78284400B20FD0884636
:1037500063463146FDF7D2FC208898F800202844C3
:1037600000B23B46711CBDE8F041FDF7C7BC3146D5
:10377000F9E7BDE8F08100002403002010B50446FD
:10378000FEF73CFB7820FEF707FB0020FEF704FB6A
:103790002046FEF701FBBDE81040FEF74BBB10B51D
:1037A0000446FEF72BFB7820FEF7F6FA4020FEF7E2
:1037B000F3FA2046FEF7F0FABDE81040FEF73ABBF8
:1037C000044A0029516901D0014300E0814351615D
:1037D0007047000000100240044A0029D16901D05E
:1037E000014300E08143D1617047000000100240B6
:1037F000044A0029916901D0014300E081439161AD
:10380000704700000010024030B5204A5168204B3C
:1038100011F00C0103D0042901D0082901D0036064
:1038200012E05168536801F470114FF0020413F470
:10383000803F04EB914102D053689B0301D5154BA7
:1038400000E0134B5943016051680F2303EA111143
:10385000114B5C5C0168E14041605468072505EA52
:1038600014241C5D21FA04F48460546805EAD4240D
:103870001B5DD940C1605268032303EA9232064BB4
:103880001B1F9A5CB1FBF2F1016130BD00100240D8
:1038900000127A0000093D000400002010B5064C1B
:1038A0000146204600F010FD8021204600F073FC08
:1038B0000028F9D010BD00000038014070B5054661
:1038C000002403E0FFF7EAFF641CE4B2285D00284F
:1038D000F8D170BD0CB50022264800920192016813
:1038E00041F4803101604FF4A063016801F40031BC
:1038F00001910099491C0091019911B900999942CF
:10390000F3D10168890333D5012101911A490A686D
:1039100042F010020A600A6822F003020A600A6894
:1039200042F002020A6041684160416841604168BA
:1039300041F480614160416821F47C11416041683B
:1039400041F4E8114160016841F080710160016853
:103950008901FCD5416821F003014160416841F0D3
:10396000020141604168C1F381010229FAD10CBD15
:1039700001920CBD001002400020024010B51B480F
:103980000B7802780D2B0AD2DFE803F009070A0D45
:10399000101316191D21252A2D00097AC17010BD9A
:1039A000097A017110BD097A017210BD097A41725C
:1039B00010BD097A817210BD097AC17210BD097AF1
:1039C00061F300020AE0097A61F3410206E0097A34
:1039D00061F3820202E0097A61F3C302027010BD52
:1039E000097A417010BD097A817010BD500F002016
:1039F00002F030BB0F4810B5016841F001010160D1
:103A000041680D4A1140416001680C4A1140016053
:103A1000016821F480210160416821F4FE014160C8
:103A20004FF41F018160FFF755FF05494FF000601B
:103A3000086010BD001002400000FFF8FFFFF6FE16
:103A400008ED00E010B5074C0121204600F03EF8DB
:103A5000002805D02046BDE81040012100F029B81B
:103A600010BD0000002C014010B501218C0720463C
:103A700000F02CF8002805D02046BDE810400121B8
:103A800000F017B810BD000010B5074C012120460A
:103A900000F01CF8002805D02046BDE810400121A8
:103AA00000F007B810BD000000040040C9430182C7
:103AB0007047C943018270470029018802D041F054
:103AC000010101E021F00101018070470246002060
:103AD000138A92890B4202EA010202D0002A00D026
:103AE00001207047002A828901D00A4300E08A43FE
:103AF0008281704730B502881B4C1C4DA0420DD00E
:103B0000A8420BD0B0F1804F08D0194B984205D095
:103B1000184B984202D0184B984203D122F0700300
:103B20004A881A43154B984206D0154B984203D049
:103B300022F44073CA881A4302808A8882850A88E0
:103B40000285A0420AD0A84208D00E4A904205D071
:103B50000D4A904202D00D4A904201D1097A018665
:103B60000121818230BD0000002C01400034014061
:103B70000004004000080040000C0040001000401D
:103B80000014004000400140004401400048014052
:103B900010B586B0FEF766F9FDF7E2FAFEF788FD8C
:103BA0000120FEF7BBFDFFF73BF83D4A3D48D178C9
:103BB0000183137903850187A0F84830A0F85810D5
:103BC000A0F86830117801F00103A0F87830C1F353
:103BD0004003A0F88830C1F38003A0F89830C1F307
:103BE000C001A0F8A8105178A0F8B8109178A0F8FA
:103BF000C8102D492D482B4BCDE90001803B0522F3
:103C000000212B48FEF7F4FD01200024CDE900043B
:103C10000146244B2648303B04224430FEF70CFC7E
:103C20002448009022481F4B0D2202216C30FEF7E1
:103C3000CFF91C4B1E48D03302220321AC30009434
:103C4000FFF72CF91C483221CDE9031015482D222D
:103C500088388DE8150000F5BC7215480223042150
:103C6000EC30FDF731FC15480090154B032205217F
:103C70001448FEF7ADF9124B1248303309220621E1
:103C800040300094FEF7D8FC0D4B0E48C03308229C
:103C9000072180300094FEF7CFFC06B010BD000075
:103CA000500F0020BC000020990F00084467000856
:103CB000C80300207D390008FD0E0008810B0008B4
:103CC000DC0100200805002070B5FEF78BFF1648C8
:103CD000B0F90200FCF715FD144C05460E46B4F988
:103CE0000000FCF70EFD124A124BFCF71BFC01F022
:103CF000D5FE2A463346FCF715FC00220E4BFCF796
:103D000011FCFCF73CFD01B20748FEF787FFB4F950
:103D1000000000F049F8014604F5B870FEF77EFF98
:103D20002088401C208070BD8C0100202C000020C9
:103D30009A9999999999B93F0000E83F1FB50121D7
:103D4000C802FFF755FD44F61F60ADF8040041F6C8
:103D50001F40ADF800000020124CADF80600ADF891
:103D600002008DF8080069462046FFF7C3FE0121D6
:103D70002046FFF79BFE012241212046FFF7B2FEBD
:103D800019208DF80C0001218DF80D108DF80E1002
:103D90008DF80F1003A8FDF71BF901212046FFF74E
:103DA0008BFE1FBD002C0140142190FBF1F201FBA2
:103DB00012030A4AA2F5B071B2F9140043B1B2F984
:103DC0001220101A262290FBF2F04A88104402E0DA
:103DD00000EBD0704010488000B270478C0100208A
:103DE0002DE9F047304C40F225552946204600F099
:103DF000D9F900281ED0A8462946204600F0B3F97C
:103E0000204600F05DFA294D294EC0B2697899B17B
:103E100001290FD12878002736F810000A2819D078
:103E20006F702F7000204FF4967126F81070401CB0
:103E30008842FADBBDE8F087297826F81100491C92
:103E4000C9B229700A28F5D101206870A870491EEE
:103E50002970DFE70022C2464146A146204600F015
:103E6000C0F9A878A8B128781249401C002408801D
:103E7000884608E008EB440036F8141041800EA094
:103E800000F076F8641C28788442F3DB0BA000F085
:103E90006FF8AF702F706F7051464846BDE8F0471D
:103EA000012200F09EB90000003801401C030020F0
:103EB00020080020C8050020256300000A0000003B
:103EC00010B5012186B08803FFF792FC0121042080
:103ED000FFF78EFC4FF40070ADF8100003208DF852
:103EE00012001820204C8DF8130004A92046FCF77E
:103EF000B0FF2115ADF8101004218DF8131004A99E
:103F00002046FCF7A6FF25208DF8140000248DF82C
:103F1000154001208DF816008DF8170005A8FDF753
:103F200057F84FF41650ADF804400090ADF8064035
:103F3000ADF80840ADF80C400C200C4CADF80A0070
:103F40006946204600F066F9012240F225512046DC
:103F500000F047F90121204600F00BF940212046EE
:103F600000F0FEF806B010BD000801400038014026
:103F70000FB400B599B01BAA68461A9900F0D0F9A1
:103F80006846FFF79BFC19B05DF814FB70B50E4D49
:103F900040F224442146284600F004F9002812D0BB
:103FA0000A48FCF713FFC0F18002094801880A445F
:103FB00042F440410180281D008821462846BDE882
:103FC000704000F0D0B870BD004400406C0002406A
:103FD00020030020F0B5074691B001210420FFF72F
:103FE00007FC01214804FFF7F7FB01210846FFF712
:103FF000E7FB0820ADF83C00304E04248DF83F402C
:104000000FA93046FCF725FFADF83C4003258DF89D
:104010003E5018208DF83F000FA93046FCF719FFDD
:104020000024ADF834400C20254EADF83040ADF8FA
:1040300036000B97ADF83240ADF838400BA930464A
:1040400000F0E8F8012240F22441304600F0C9F8BF
:1040500001224021304600F096F826208DF84000DD
:104060008DF841508DF8425001208DF8430010A882
:10407000FCF7AEFF134D2846FCF736FE301D0090CE
:104080001148CDE901048021CDE90314CDE90514DF
:104090002020CDE907404FF44050CDE9090469469E
:1040A0002846FCF796FE01212846FCF712FE012166
:1040B000304600F05EF811B0F0BD0000000801408D
:1040C000004400406C000240E80800200FB4812149
:1040D00070B5A2B0002427AB6846269A00F00EF90E
:1040E0000C4D6E460DE0315D641CE4B2284600F0D4
:1040F000EBF84021284600F04EF80028F9D0802C3B
:1041000004D26846FCF77EF8A042ECD822B070BC1E
:104110005DF814FB0044004070B50E4D40F224449D
:104120002146284600F03EF8002812D00A48FCF745
:104130004DFEC0F18002094841880A4442F44041E2
:104140004180281D008821462846BDE8704000F0C7
:104150000AB870BD00480040300002402003002033
:10416000C943018070470A0A01219140C943018077
:1041700070470029818902D041F4005101E021F407
:10418000005181817047002A828A01D00A4300E0F1
:104190008A43828270470246002012880A4200D079
:1041A0000120704770B501F01F0501260024C1F3FE
:1041B000421306FA05F2012B0FD0022B0FD0838A8F
:1041C0004FEA11210088134206FA01F600EA0600C0
:1041D00001D000B10124204670BD8389F0E7038A35
:1041E000EEE710B5C1F3421301F01F040121A14015
:1041F000012B07D0022B07D01430002A026805D00B
:104200000A4304E00C30F8E71030F6E78A43026016
:1042100010BD000030B50446008A85B00D464CF64E
:10422000FF710840E98801432182A0894EF6F3110D
:104230000840A9882A8911436A8902431143A18150
:10424000A08A4FF6FF410840A9890143A182684630
:10425000FFF7DAFA1948844201D1039800E0029886
:10426000A189090400EBC00101EB0010296801D508
:10427000490000E08900B0FBF1F06422B0FBF2F1EC
:1042800009010B096FF018056B4300EB8300A3894C
:104290001D044FF0320306D503EBC000B0FBF2F073
:1042A00000F0070005E003EB0010B0FBF2F000F0B7
:1042B0000F000843208105B030BD000000380140E8
:1042C0008088C0F308007047C1F3080181807047FF
:1042D000FEE700000FB4084B10B504A902AA03982A
:1042E00000F02CFC044602A9002000F0C9FF204683
:1042F00010BC5DF814FB0000815200087CB5491E1B
:104300001C461546CDE90001044B6A462146284665
:1043100000F014FC009A002111707CBD6B52000863
:1043200037B514460846064B6A46214600F006FC9F
:1043300004466946002000F0A3FF20463EBD000071
:1043400081520008490050EAC12018BF04204A0DDC
:1043500018BF40F0010040F2FF72B2EB515F08BF9E
:1043600040F00200012808BF052070472DE9F74FF3
:10437000144694B00021C4E902111599079121F067
:104380000045C9498D4206DC1599C4E9000117B002
:104390000020BDE8F08FC549DFF814A3A9423CDD39
:1043A0000799C44E0029C44FC44A1599534619DDD4
:1043B000FCF7B2F8554506D0C14AC24BFCF7ACF841
:1043C000C4E900010AE04FF0D352BE4BFCF7A4F859
:1043D00032463B46FCF7A0F8C4E9000117B00120C3
:1043E000BDE8F08FFBF7F7FF554506D0B44AB54B53
:1043F000FBF7F1FFC4E900010AE04FF0D352B14BE3
:10440000FBF7E9FF32463B46FBF7E5FFC4E9000155
:1044100017B04FF0FF30BDE8F08FAB49A9421599B6
:1044200078DB21F0004183468846A84AA84BFCF778
:1044300079F80022A74BFBF7CEFFFCF7A0F9099013
:10444000FCF75FF906460F469C4A5346FCF76AF8AC
:1044500043465A46FCF763F880468A46984A994B89
:1044600030463946FCF75EF82A0D01250B9242468C
:104470005346FCF754F8032DC4E9000139D00B98DA
:10448000C1F30A51401A05EB45111139814230DA66
:104490009148C346784400EB0510CDF80CA00C9071
:1044A000D0E9002330463946FCF73CF802460B467B
:1044B0000491069058460399FCF72EF880468A46E8
:1044C00002460B4658460399FCF726F8049B069AC9
:1044D000FCF722F883460C9803913946D0E9022371
:1044E0003046FCF71FF85A46039BFCF715F86D1C85
:1044F000BDE707980028A2BF099817B0BDE8F08F64
:10450000616881F000416160099817B04042BDE8E0
:10451000F08FFFE784461598C1F31301C0F30A50EA
:10452000A0F2F5304FEA601800F01F06C6F1200037
:10453000139000200690079041F4801E05206D46E0
:1045400076B1664A08EB00017A4452F8213002EB5A
:104550008101B3404A68139922FA01F1194305E039
:104560005F4908EB0002794451F82210A1FB0E27A5
:10457000A1FB0C131A449A4234BF0123002303EB1E
:10458000070A05EB8003D3E901B70F448F4234BF1C
:104590000121002193448B4411B1934502D903E0DA
:1045A000934501D2012100E00021C3E901B7514444
:1045B00045F82010011EA0F10100C1DC0298059F02
:1045C00000F10050800F12900298DDE90356800040
:1045D000FCF797F8834628460D91FCF798FA6FF0A0
:1045E0001D02FCF77DFACDE90E013046FCF78FFA8B
:1045F0006FF03D02FCF774FA80468A463846FCF7B5
:1046000086FA6FF05D02FCF76BFA074642465346A6
:104610001191FBF7E0FEDDE90E23FBF7DCFE5A46C5
:104620000D9BFBF7D8FE00250E465A4628460D9BEB
:10463000FBF772FFDDE90E23FBF76EFF42465346A0
:10464000FBF76AFF3A46119BFBF769FFDFF898A07A
:10465000244A5346FBF766FF07468846234A244B05
:1046600031462846FBF75EFF3A464346FBF7B3FE6A
:10467000074688464FF0A842534631462846FBF786
:1046800051FF3A464346FBF7A6FE159A12F0004F3B
:1046900004D0129A81F0004152421292C4E9000102
:1046A000129817B0BDE8F08FFB21E93F7CD902409A
:1046B000FB21F93F7370032E8A19A33B000040547D
:1046C0003163621A61B4D03DFB21394183C8C96DA1
:1046D000305FE43F0000E03F303D0000AC3C0000B4
:1046E0008E3C0000182D4454FB21F93D3326A611C1
:1046F000460B113C2DE9FF4D21F0004807460C46C2
:10470000B8F1795F08DAFCF73AF8002801BF002019
:10471000324904B0BDE8F08D3A46234610461946AA
:10472000FBF700FF054602462D480E460B460621C4
:10473000784400F05DF82A463346FBF7F3FEDDE9E6
:10474000022382468B4638462146FBF7EBFE0446A1
:104750000F4652465B4628463146FBF7E3FE2246AB
:104760003B46FBF7D9FE07468A464FF0FF32284604
:104770003146FCF7B5F91B4A90450ADA3A465346EA
:10478000FBF7CAFE04B00022BDE8F04D134BFBF767
:10479000C6BE154A4245A8BFA8F500154FF0000453
:1047A000B8BF124D22462B46FBF7B6FE064688469A
:1047B00022462B4600200949FBF7AEFE04460D4673
:1047C0003A46534630464146FBF7A6FE04B0224621
:1047D0002B46BDE8F04DFBF7A2BE00000000F03F05
:1047E000643A00003333D33F0000E93F0000D23F7A
:1047F0002DE9F0414F1E00EBC7010446D1E900014D
:1048000015461E4637F006020DD02A463346FBF702
:1048100089FE7F1E04EBC703D3E90023FBF7DBFD12
:1048200037F00602F1D1022F25D0042F13D0062F26
:1048300018BFBDE8F0812A463346FBF773FED4E982
:104840000A23FBF7C8FD2A463346FBF76BFED4E983
:104850000823FBF7C0FD2A463346FBF763FED4E985
:104860000623FBF7B8FD2A463346FBF75BFED4E987
:104870000423FBF7B0FD2A463346FBF753FED4E989
:104880000223FBF7A8FD2A463346FBF74BFED4E98B
:104890000023BDE8F041FBF79EBD00002DE9FF4D70
:1048A000054621F0004084B00C46B0F1795F0BDA88
:1048B0002846FFF747FD042808BF00F06FF8284698
:1048C00008B02146BDE8F08D2A460B461046FBF79E
:1048D00029FE06460F462A462346FBF723FE80465E
:1048E00026488A4632463B4605217844FFF780FF3A
:1048F00083461098029160B3214A224B40465146AC
:10490000FBF710FECDE900015A4640465146029B96
:10491000FBF708FE82468846DDE906014FF0FF32CC
:10492000FCF7DEF852464346FBF7F6FD32463B46BF
:10493000FBF7F8FDDDE90623FBF7EEFDDDE90023DB
:10494000FBF7EAFD08B02A462346BDE8F04DFBF729
:10495000E6BD0B465A4630463946FBF7E3FD084AAA
:10496000084BFBF738FD42465346FBF7DBFD08B02A
:104970002A462346BDE8F04DFBF72DBDA2390000C5
:10498000495555555555C5BF0122FCF7A9B8002218
:10499000134610461146FBF737BE0000024A0020BE
:1049A0001107FCF79DB8000001FDFFFF02E008C8F9
:1049B000121F08C1002AFAD170477047002001E099
:1049C00001C1121F002AFBD1704700000149086095
:1049D00070470000C40300202DE9FF5FDDE90220DD
:1049E000010DDDF838B0024318D044F61050A1F2A2
:1049F000FF3141430D140F98012820D0A5EB0B0087
:104A0000401C5FEA000A4FF00004474EDFF81C919B
:104A1000A046504616D5CAF1000728E00F98012499
:104A200043A2012808D0002100980F9BC0E9002173
:104A3000C0E90243BDE8FF9F6FEA0B01F4E7CBF149
:104A40000000DEE7074612E0F80707D022463346AB
:104A500040464946FBF766FD804689462246334676
:104A600010461946FBF75EFD04460E467F10002FE8
:104A7000EAD1DDE90201BAF1000F42464B4602DA03
:104A8000FBF750FD01E0FBF7BFFD04460E46002298
:104A9000284BFBF7A7FE03D84FF0FF30014607E095
:104AA0000022254B20463146FBF795FCFBF7EEFF35
:104AB000102409E0002C0ADB0A220023FBF7F0FE99
:104AC000019B30321A55641E50EA0102F2D1641C77
:104AD000019AC4F1110314440F9A012A03D0012250
:104AE00008430DD10AE0084304D000204FF0110B19
:104AF0000F9080E7A3EB0B056D1E0DE05B4504DD19
:104B00004FF0000205F1010504E003DA4FF0000266
:104B1000A5F10105002AECD000980F99C0E90231F7
:104B2000C0E9004586E70000000024400000F03F97
:104B3000300000000000F0430000E03F2DE9FF4F8F
:104B400095B09B468946064600250FE2252877D179
:104B500000242746F84A0121059400E0044316F892
:104B6000013F203B01FA03F01042F7D130782A28A8
:104B700011D06FF02F033078A0F13002092A16D837
:104B8000059A44F0020402EB820203EB4202104455
:104B9000761C0590EFE759F8042B0592002A03DAFA
:104BA000504244F40054059044F00204761C3078DE
:104BB0002E2816D116F8010F44F004042A280DD02F
:104BC0006FF02F023078A0F13003092B09D807EBE2
:104BD000870302EB4303C718761CF3E759F8047BFD
:104BE000761C30786C280FD006DC4C2817D068284B
:104BF0000DD06A2814D104E0742810D07A280FD17F
:104C00000DE044F400140AE044F4801401E044F49C
:104C100040147278824202D104F58014761C761C0E
:104C2000307866280BD013DC582877D009DC0028B0
:104C300075D04528F6D04628F4D047281AD19DE1F2
:104C400018E0632835D0642879D0652812D195E121
:104C5000702873D008DC6728F1D069286FD06E28DF
:104C60000DD06F2806D1B5E073282CD0752875D0EB
:104C7000782874D05A46179990476D1C75E1C4F393
:104C80000250022809D003280DD0D9F800100428BA
:104C90000DD00D6009F1040967E1D9F80010EA1799
:104CA000C1E90052F6E7D9F800100D80F2E70D7067
:104CB000F0E719F8041B8DF8001000208DF80100B2
:104CC000EA46012003E059F804AB4FF0FF306107DA
:104CD0004FF0000102D40DE008F101018846B9420D
:104CE0000FDA8045F8DB1AF808100029F4D108E043
:104CF00008F1010188468142FADB1AF80810002900
:104D0000F6D105985B46A0EB080721463846179A6E
:104D100000F094FA284400EB080507E04DE029E193
:104D20000DE01AF8010B5A4617999047B8F101089F
:104D3000F7D25B4621463846179A13E142E00A2231
:104D40000092C4F302524FF0000A022A08D059F828
:104D500004CB032A4FEAEC710AD00DE029E02AE0E7
:104D600009F1070121F00702F2E802C1914609E0CA
:104D70000FFA8CFC4FEAEC71042A03D14FFA8CFC39
:104D80004FEAEC71002907DA0A460021DCF1000C39
:104D900061EB02012D2202E0220504D52B228DF8C1
:104DA0000420012203E0E20701D02022F7E7904629
:104DB00059E00A2102E010220DE010214FF0000A14
:104DC00000910BE010224FF0000A44F00404082781
:104DD000009203E008224FF0000A0092C4F302524E
:104DE000022A05D059F804CB0021032A08D009E093
:104DF00009F1070121F00702F2E802C1914605E03E
:104E00001FFA8CFC042A01D10CF0FF0C4FF00008B3
:104E1000220728D5702806D0009B83F0100353EAA0
:104E20000A0305D00EE040228DF80420012208E09C
:104E30005CEA010206D030228DF804208DF80500CE
:104E400002229046009B83F0080353EA0A030AD12A
:104E50005CEA010201D1620705D530228DF80420F9
:104E60004FF001087F1E582804D034A003900EA8EC
:104E700002900DE036A0F9E753466046009AFBF732
:104E80000FFD84460398825C0298401E02900270D7
:104E90005CEA0100F0D1029806A9081A00F1200A84
:104EA000600702D524F4803400E00127574502DD75
:104EB000A7EB0A0000E0002000EB0A010090059833
:104EC0004144401A0590E00306D45B462146179AF8
:104ED000059800F0B3F90544002706E001A85A46FA
:104EE000C05D179990476D1C7F1C4745F6DBE003BA
:104EF0000CD55B462146179A059800F09FF90544AA
:104F000004E030205A46179990476D1C0099481EBE
:104F100000900029F5DC08E0029802995A460078D2
:104F2000491C0291179990476D1CBAF10001AAF132
:104F3000010AF1DC65E1000009280100303132335B
:104F400034353637383961626364656600000000C5
:104F500030313233343536373839414243444546AF
:104F60000000000000F058F90544761C3078002855
:104F70007FF4ECAD19B02846BDE8F08F620700D48D
:104F8000062709F1070222F0070CFCE80223E1469C
:104F900003F000485FEA080C02D00FF2702C0DE01D
:104FA0005FEA045C02D50FF2682C07E05FEAC47C7C
:104FB00002D00FF2602C01E0AFF2700C4FF0FF381E
:104FC00023F00043CDF850C065280CD006DC4528FE
:104FD00009D046281DD047283DD13DE0662818D08D
:104FE00067287ED138E00021112F01DB112000E07D
:104FF000781CCDE9000106A90EA8FFF7EDFCDDE95C
:105000000F010E9A03910021009207F1010A049109
:105010004DE04FF000400097CDE9011006A90EA821
:10502000FFF7DAFCDDE90F0203920E9B11990022D3
:10503000DDF80CA00093049211B9791C00EB010A71
:10504000B7EB0A0004D4C0F1FF3007F1010A049065
:10505000AAEB0700019044E0012F00DA01270021AC
:10506000112F01DD112000E03846CDE9000106A92D
:105070000EA8FFF7B1FCDDE90F010E9A03910021A4
:1050800004910092BA4621070CD40399514500DAE5
:105090008A46BAF1010F05DD009AAAF10101515CBF
:1050A000302908D0B84202DA10F1040F06DA0121E3
:1050B000CDE9011015E0AAF10101E9E7002805DCBE
:1050C000049901440491AAEB000102E0411C5145FE
:1050D00000DD8A460499401A401C01904FF00040C0
:1050E0000290200704D40198504501DBCDF80480DC
:1050F00000208DF84F0002980DF14F07B0F1004FDE
:1051000025D02B200E9002984FF0020800280CDAD0
:10511000404202902D200E9007E00A210298FBF7F2
:10512000A9FB3031029007F8011DB8F10001A8F188
:105130000108F2DC02980028EFD1791E0E98087061
:10514000307800F0200040F0450007F8020D12A86A
:10515000C01B00F107081498007800B1012000EB93
:105160000A01019801EBE07105984144401A401E84
:105170000590E00306D45B462146179A059800F097
:105180005DF805441498007818B15A46179990476D
:105190006D1CE00324D55B462146179A059800F064
:1051A0004DF805441CE00498002807DBDDE9030105
:1051B000884203DD0098405C179901E01799302080
:1051C0005A469047049805F10105401C0490019847
:1051D000401E019004D12E205A46179990476D1C0D
:1051E000BAF10001AAF1010ADDDC05E017F8010BB4
:1051F0005A46179990476D1CB8F10001A8F10108B3
:10520000F4DC5B462146179A0598ABE62D000000BA
:105210002B000000200000002DE9F041044600258D
:105220001E461746880404D405E039462020B047BE
:105230006D1C641EF9D52846BDE8F0812DE9F041CA
:10524000044600251E469046C80301D5302700E0DD
:105250002027880404D505E041463846B0476D1C38
:10526000641EF9D52846BDE8F0814A68002A06D0B8
:105270000A68531C0B6010704868401E48607047F5
:105280000A68531C0B6010707047000010B504468C
:105290000A210548FAF7ABFF224604A10248FFF7AE
:1052A00019F8014810BD0000680E002025640000B8
:1052B0001CB54FF44070FBF7BDFEFEF701FEFEF794
:1052C0003DFDFEF765FC4FF41650FEF783FE0949DD
:1052D0000120CDE900010202002307A10A4801F0E4
:1052E00093F8012802D04FF0FF301CBD00F0E0FD24
:1052F000FEE70000140000204170705461736B439E
:1053000072656174650000009D0B00082DE9F04195
:10531000184E0F460446F5683068001D00F00EFC7C
:1053200038B9306890F82C100120884031698143E9
:105330003161601C07D137B13168BDE8F0410E48DA
:10534000091D00F033BC30682C44AC424460316825
:1053500005D2306CBDE8F041091D00F00FBCF06BC8
:10536000091D00F00BFCB06A844200D2B462BDE8B3
:10537000F081000050030020581000202DE9F0417A
:10538000054600F01FFC2E4EB068401CB06030682F
:105390002C4F10B1706940B32DE03560B068012822
:1053A00029D1002404EB840007EB800000F0D8FB37
:1053B000641C052CF6D32348643000F0D1FB21484F
:1053C000783000F0CDFB1F488C3000F0C9FB1D4841
:1053D000A03000F0C5FB1B48B43000F0C1FB1948F9
:1053E0006430F0631430306405E03068E96AC06A04
:1053F000884200D83560706A0121401C7062686480
:10540000E86A326981401143316100EB800007EBAB
:105410008000291D00F0CAFB00F0E2FB7069002843
:105420000CD03068E96AC06A884207D206494FF05A
:1054300080500860BFF34F8FBFF36F8FBDE8F081DE
:1054400050030020A40F002004ED00E010B500F090
:10545000B9FB0C4C206880B90B4800F081FB0A486E
:10546000143000F07DFB0848E06014302061002219
:105470000C210A2000F004FE2060BDE8104000F07E
:10548000AFBB0000940300206C10002070B5124EDA
:10549000124D1CE000F08CFD306820B1002401F0BA
:1054A000B7F8A4B901E00124F9E700F08BFBF0683C
:1054B000C468201D00F042FBA868401EA860686810
:1054C000401E686000F08CFB204600F052F86868CF
:1054D0000028DFD170BD00004410002050030020E0
:1054E00030B4026C0B46002A0BD0C1681144C16075
:1054F0004468A14201D30168C16030BC1846FAF784
:105500005DBE30BC70472DE9F041856B17460446FF
:105510000026026C82B1C7B1E068FAF74FFEE1687D
:10552000206C091AE1602268914202D26168081A6F
:10553000E060022F16D017E02068A8B9606800F07C
:10554000FDFF0646002060600EE0A068FAF736FE18
:10555000216CA0680844A0606168884204D3206878
:10556000A06001E005B16D1E6D1CA5633046BDE86D
:10557000F08110B50446006B00F03CFB2046BDE80E
:10558000104000F037BB000010484FF408514207AC
:1055900006D0C01D0D4920F00700411AC1F5085181
:1055A0000B4A00230144C2E900030839103A21F0F4
:1055B000070111604B600B600B1AC0E90013936088
:1055C0004FF000405360D0607047000094100020FE
:1055D000B8030020074E4FF08054074DFFF756FFE9
:1055E00030680128FAD92C60BFF34F8FBFF36F8F5B
:1055F000F4E70000A40F002004ED00E02DE9F047DF
:105600000E46DDE909841746824691009946089DB9
:10561000A522206BFAF7E4FD6FF00301206B01EB8C
:105620008701084420F0070700202218315C82F827
:105630003410315C11B1401C1028F6D3002684F8D8
:105640004360052D00D30425E562C4E91356201DEF
:1056500000F091FA04F1180000F08DFA2461C5F110
:1056600005006462A0616665A66584F85C604A46D0
:105670005146384600F000FA2060B8F1000F01D022
:10568000C8F80040BDE8F08730B5114900E0114688
:105690000A688242FBD34B685C18844203D140689D
:1056A00018444860084643681C18944209D1084CC5
:1056B000103C2468A24209D052681A4442600A6829
:1056C00012680260814200D0086030BD0460F9E7D2
:1056D000B803002070B5002441600B4D0061914279
:1056E00006D8D11A8269914206D2011D286907E0C5
:1056F0009A4203D2994201D3012403E0011DE868D4
:1057000000F03CFA204670BD9403002010B504461A
:1057100000F058FAA06B20B1002400F061FA204696
:1057200010BD0124F9E7000030B585B0234D3AE003
:105730000198002837DB039C606910B1201D00F040
:10574000FDF904A800F09EF8024601980A282AD222
:10575000DFE800F0050505291E260505291E02982B
:10576000A169034601442046FFF7B4FFD8B1616A3E
:1057700020468847E069012815D100200090029852
:10578000A169002342181946204600F0B7FF0AE03D
:105790000298A061811813462046FFF79BFF02E0A4
:1057A000204600F027FA00231A4601A9286800F0D5
:1057B00087FC0028BCD105B030BD00009403002058
:1057C0002DE9FC410E46054600F0F2FB01A800F071
:1057D00059F80446019818B100F01AFFBDE8FC81A1
:1057E0001E4FAEB138690068A0B30026291B3246AF
:1057F000386800F029FA00F00BFF0028EED11849B4
:105800004FF080500860BFF34F8FBFF36F8FE5E715
:10581000A542EBD800F0FCFEF8682646C068C468D4
:10582000201D00F08BF9E06901280FD1A0692B46FB
:10583000411932462046FFF74DFF38B1002003469C
:10584000014600902A46204600F058FF616A204633
:105850008847C3E7FFE70126C8E70000940300205C
:1058600004ED00E00648C16B096829B1C16BC96845
:10587000C9684968816270474FF0FF31FAE700005C
:105880005003002070B5054600F0F8FD064E0446B2
:10589000B068844203D200F009F8012000E0002043
:1058A00028602046B46070BD94030020F8B5144E03
:1058B0001EE0C068C4680568201D00F03FF9616AF9
:1058C00020468847E069012812D1A0692844A842EF
:1058D00006D924616060211DF06800F04FF907E0EF
:1058E00000200346014600902A46204600F006FFAD
:1058F000F06801680029DCD13169C6E90310F8BD00
:1059000094030020BF2080F31188BFF34F8FBFF3B3
:105910006F8FFEE7064B426900219A4206D1806AEA
:10592000A3F12802904201D000B901210846704736
:1059300058100020084CE068016839B1002139B1E5
:105940000020FFF73DFFFFF7EFFEF4E70121F6E748
:10595000C0680068F5E70000940300202DE9F041DD
:10596000044600F02FF994F9455004F1240609E0AB
:10597000606A48B1304600F019FE08B100F0EAF95B
:105980006D1E6DB2002DF3DC4FF0FF3684F84560DC
:1059900000F026F900F016F994F9445004F11007CC
:1059A00009E0206948B1384600F000FE08B100F077
:1059B000D1F96D1E6DB2002DF3DC84F84460BDE8B2
:1059C000F04100F00DB900002DE9F0410546002638
:1059D00000F0EEFA214F386808B9FFF7D5FDF868F6
:1059E000054236D1ADB30835680704D005F007008D
:1059F000C0F10800054465B37868854229D8174985
:105A000010310846046801E0214604466068A84257
:105A100002D220680028F7D13868844219D00E6875
:105A20002068086060680836411B102904D9601995
:105A300041606560FFF728FE61687868401A786009
:105A4000BA68904200D2B860F86801430020C4E907
:105A5000000100F0DDFD3046BDE8F081A803002024
:105A60000449086818B10868026D521C026508688C
:105A7000704700005003002010B5031F4FF08074E2
:105A80001C601B1F21F001011960191F024B0B60E4
:105A9000143940380A6010BD0559000800B5254B7F
:105AA00021F0004287B09A4203DC002213460092A4
:105AB0002BE0214B9A4208D140B94FF00100FEF78C
:105AC00085FFFEF764FF07B000BD03DBFEF75CFF58
:105AD00007B000BD02AAFEF749FC10F003014FF029
