:020000040800F2
:10000000E84E0020990100080D1A0008F7170008B3
:10001000C918000849150008C94D00080000000073
:1000200000000000000000000000000001010008C6
:10003000C91600080000000045010008AD44000892
:10004000B3010008B3010008B3010008B3010008C0
:10005000B3010008B3010008B3010008B3010008B0
:10006000B3010008B3010008B3010008B3010008A0
:10007000B3010008B3010008B3010008B301000890
:10008000B3010008B3010008B3010008B301000880
:10009000B3010008B3010008B3010008B301000870
:1000A000B301000801450008B3010008B3010008CE
:1000B0002545000845450008B3010008B3010008C4
:1000C000B3010008B3010008B3010008B301000840
:1000D000B3010008D1480008854A0008114C000807
:1000E000B3010008B3010008B3010008DFF80CD029
:1000F00000F092FF0048004795630008E84E00209A
:10010000224B19680868B0E8F00F80F30988BFF344
:100110006F8F4FF0000080F311884EF00D0E704786
:100120000000000006480068006880F3088862B696
:1001300061B6BFF34F8FBFF36F8F00DF00BF00BF0B
:1001400008ED00E0EFF30980BFF36F8F0F4B1A68E3
:1001500020E9F00F106008B54FF0BF0080F3118860
:10016000BFF34F8FBFF36F8F07F060FD4FF00000BC
:1001700080F31188BDE8084019680868B0E8F00FFE
:1001800080F30988BFF36F8F704700BF64030020BE
:10019000EFF3058070470000064880470648004797
:1001A000FEE7FEE7FEE7FEE7FEE7FEE7FEE7FEE727
:1001B000FEE7FEE7B1440008ED000008A0F14101B0
:1001C000192900D82030704740EA01039B0703D06B
:1001D00009E008C9121F08C0042AFAD203E011F886
:1001E000013B00F8013B521EF9D27047D2B201E048
:1001F00000F8012B491EFBD270470022F6E710B52C
:1002000013460A4604461946FFF7F0FF204610BD84
:1002100030B505462A460B4612F8010B13F8014B80
:1002200008B1A042F8D01CB1002802D06D1CF1E743
:10023000284630BD10B5044604E00B7800F8013BB9
:1002400003B1491C521EF8D2204610BD421C10F8C2
:10025000011B0029FBD1801A704710B5002200E075
:10026000521C835C8C5CA34201D1002BF8D1D8B224
:10027000E1B2401A10BD034611F8012B00F8012B22
:10028000002AF9D11846704730B5054600200346CC
:1002900000E05B1C934205D2EC5CC85C201A01D1E3
:1002A000002CF6D130BD00000FB400B58DB010A900
:1002B00009900B9000914FF0FF300A9000200C90B5
:1002C00005480690054807906A4609A80F9900F06E
:1002D0006FFD0DB05DF814FBCD0D0008EB0D0008AF
:1002E0002DE9FF4F087883B09946FF2805D0491CB7
:1002F0002D2804D00024002008E000200BE0012479
:10030000F9E700EB800003EB4000491C0B78FF2B62
:10031000F7D104B1404200230293147819461D46D8
:100320002D2C01D02B2C04D1521C2D2C13D00024A9
:100330000294AA461478FF2C0FD00A25A3FB057857
:1003400001FB05814FF0000C03FB0C11521CE3195B
:100350004AEB0101EEE70124EAE7814453EA010098
:1003600002D019F5C87F06DA03980021C0E9001110
:1003700007B0BDE8F08F0025AE4E2F46DFF8B882FB
:10038000184600F025FECDE90001B9F1000002DABF
:10039000C9F1000400E004460023A74A1AEB030B4E
:1003A00042EB045A12E0E00707D02A4633463846AB
:1003B000414600F0C0FA074688462A4633461046B2
:1003C000194600F0B8FA05460E466410002CEAD132
:1003D000DDE90001B9F1000F5A46534606DA00F094
:1003E0001CFB3A46434600F018FB05E000F0A3FA78
:1003F0003A46434600F09FFA029A0AB181F0004162
:10040000039AC2E90001B3E72DE9FF4F1F468DB003
:10041000D7E901464FF0FF382E2045464FF000093E
:100420000B90B9696D1C0E988847396A82468847D7
:100430000028F6D1BAF1FF3F0AD024F4D064002E90
:1004400011DDBAF12B0F08D0BAF12D0F0BD102E05C
:10045000404611B08DE744F48064B9696D1C0E9874
:1004600088478246761E6946600501D52D2000E04A
:100470002B208DF8000001F1010B0DF1200809E09F
:10048000B9696D1C0E98884782460F9844F4007431
:10049000761E0560002E02DDBAF1300FF0D00B9908
:1004A0008A453ED144F0800406E00F99681CA9F10A
:1004B000010944F400740860B9696D1C761E0E9839
:1004C000884782463028F0D02BE00B998A4505D129
:1004D000200603D444F08004761E18E0504605F050
:1004E00001F908B30DF11301761E44F400748B4535
:1004F00008D2AAF130000BF8010B200607D5A9F1AC
:10050000010003E0200602D409F101008146A005A4
:1005100002D50F99681C0860B9696D1C0E98884750
:100520008246002ED1DC53E0002E51DDBAF1650F7A
:1005300002D0BAF1450F4BD1A00549D5B9696D1C60
:1005400024F44074761E0E9888478246002E0CDDF7
:100550002B2804D0BAF12D0F07D144F48074B96967
:100560006D1C0E9888478246761EE00501D52D2128
:1005700000E02B2108F8011BCDF82C8021E00DF1C3
:100580002901761E44F4007488450CD2AAF130008B
:1005900010F0FF0088F8000002D10B99884509D9B6
:1005A00008F1010806E0E00501D5244801E042F227
:1005B0000F708146B9696D1C0E98884782460F9866
:1005C0000560002E04DD504605F08CF80028D6D1D9
:1005D000F9690E988847FF208BF8000088F8000022
:1005E0000020069007904B466A4608A906A8FFF728
:1005F00077FEA00502D46FF001002AE714F0240F63
:100600000AD0E00714D1DDE906123868031D3B600B
:100610000068C0E900120BE0DDE9060100F01AFBFA
:100620000146E00704D13868021D3A6000680160A5
:1006300028460EE7000014400000F03FF1D8FFFF0D
:10064000F0B480EA0102D40F4200B2EB410F02D2B3
:100650000246084611464A0042D0C30DDDB2C1F33E
:10066000C752AD1A202D35DAC1F3160141F400024C
:1006700004B15242C5F1200602FA06F12A411044A3
:10068000B3EBD05F23D0C4B1012DA0EBC35009DC84
:10069000F0BC4FF0004202EAC352DBB200F50000AA
:1006A00000F00BBC400000F1807000EBC350A0F1E3
:1006B000807040EAD170490009E0490841EAC07100
:1006C000A0EBC35000F50000400800EBC350F0BCA5
:1006D00000F0EABB6142012202EB4101001BF6E798
:1006E000F0BC704781F00041AAE780F00040A7E726
:1006F00080EA010210B502F00043400022D04A0017
:100700001FD0010E01EB1261C0F35600C2F3560276
:1007100040F4000042F40002A0FB022000047F39F4
:10072000140400D0401C50EA124001D44000491E7D
:10073000C2B20C0604EBD010401C4008802A02D044
:1007400003E0002010BD20F00100002900DA0020A5
:10075000184310BD30B480EA010202F0004530F0C9
:10076000004221F0004013D090B1C30DD40DC2F36C
:100770001601C0F31600E41A41F4000140F400022F
:100780007D34914201D3641C00E04900002C02DA60
:1007900030BC002070474FF400000023914201D389
:1007A000891A034340084FEA4101F7D151B1914200
:1007B00002D14FF0004105E002D24FF0010101E00B
:1007C0006FF0010103EBC450284430BC00F06CBB57
:1007D000420005D0C0F3C7525242914201DC0020D2
:1007E000704700EBC15070472DE9FE4F804681EA0B
:1007F0000300C00F0C46009021F0004123F000459B
:10080000B8EB0200A94105D24046214690461C465D
:100810000B46024623F00040104347D0270DC7F394
:100820000A00C3F30A510290401A019040286BDA83
:10083000C3F3130040F4801B0098924620B10023BC
:10084000D2EB030A63EB0B0B01985946C0F140024F
:10085000504600F076FA06460D4650465946019A33
:1008600000F08EFA10EB08006141002487EA115273
:1008700084EAE7731A4340D0009A62B3019A012ACE
:100880004FEA075215DC001B61EB02014FF00042FA
:1008900002EA0752CDE90042001C41F580113246C0
:1008A0002B4600F047FB03B0BDE8F08F40462146E1
:1008B000F9E7001B61EB0201001C41F580130018F1
:1008C0005B412018A2F5001747EB030140EAD57001
:1008D000B6196D4111E06D084FEA360645EAC0755C
:1008E0004FEA0752001B61EB0201001C41F5801129
:1008F00049084FEA30000019514132462B4603B0F7
:10090000BDE8F04F00F007BB009801224000002333
:10091000D0EB020263EBE073009821464FEAE074EB
:10092000B8EB000061EB0401E9E783F000435BE70B
:1009300081F0004158E72DE9FE4F81EA030404F0FD
:10094000004421F0004100944FF0000B23F00043DD
:1009500050EA01045ED052EA03045BD0C3F30A54A8
:10096000C1F30A552C44A4F2F3340194A0FB0254C1
:10097000C1F3130141F48011C3F3130343F4801353
:1009800001FB024400FB034E840A970A44EA8154A7
:1009900047EA8357A4FB076802958D0A05FB078584
:1009A0004FEA932C04FB0C542705029D4FEA06588E
:1009B00047EA1637B5EB08056EEB070C870E920E6B
:1009C00047EA811742EA8312A7FB0201B6EB0B014B
:1009D00064EB00042B0D43EA0C335E1844EB1C500F
:1009E000DA465146E7FB0201C5F313044FEA0B3325
:1009F00043EA14534FEA0432019C43EA0603A4F18C
:100A00000C040294009CCDE900B400F093FA03B00A
:100A1000BDE8F08F00200146F9E72DE9F04D81EAAD
:100A2000030404F0004B21F0004514464FF0000A87
:100A300023F0004150EA050220D054EA01021DD003
:100A4000C5F30A570246C5F31303C1F31300C1F3FC
:100A50000A5640F4801543F48013A7EB0608101BD8
:100A6000D64608F2FD3873EB050002D308F1010801
:100A700001E092185B41B8F1000F03DA0020014653
:100A8000BDE8F08D00204FF48011064684460EE04C
:100A9000171B73EB050705D3121B63EB0503064316
:100AA0004CEA010C49084FEA300092185B4150EAC9
:100AB0000107EDD152EA030012D082EA040083EA72
:100AC0000501084305D0101BAB4106D201220023CB
:100AD00006E000224FF0004302E06FF001025310E5
:100AE0001AEB06004CEB085110EB0A0041EB0B012E
:100AF000BDE8F04D00F00FBAC10F80EAE070084485
:100B0000CA079623002100F0D8B996230022114687
:100B100000F0D3B90EB5C10F80EAE0700844CA07EF
:100B2000002140F233438DE80E000A460B4600F0E8
:100B300001FA03B000BD00F0004220F00040C10DFA
:100B4000C0F3160040F400007F2901DA002070474E
:100B5000962903DCC1F19601C84001E0963988402E
:100B6000002AF4D04042704720F00040C10DC0F38D
:100B7000160040F400007F2901DA00207047962912
:100B800003DCC1F19601C840704796398840704730
:100B900070B5C1F30A5201F000450024C1F31301FE
:100BA00040F2FF3341F480119A4201DA002070BD17
:100BB00040F233439A42A2F2334203DC524200F045
:100BC000CFF800E090402C43F1D0404270BD00F0DF
:100BD000004230F000400AD0C10D01F56071C0F351
:100BE000160042EA0151C208400711437047002035
:100BF0000146704730B5041E71F1000404DB4FF06C
:100C00000044404264EB0101141E73F1000405DB53
:100C10001C464FF00043524263EB04038B4208BF73
:100C2000824230BD30B5041E71F1000404DB4FF088
:100C30000044404264EB0101141E73F1000405DB23
:100C40001C464FF00043524263EB0403994208BF35
:100C5000904230BD01F0004330B421F0004150EA31
:100C6000010206D00A0DA2F56072C1F31301002A39
:100C700002DC30BC00207047440F44EAC104C100CC
:100C8000E01830BC00EBC25000F00EB9002801DBC8
:100C9000C0F10040002901DBC1F1004181427047F1
:100CA000002801DBC0F10040002901DBC1F1004157
:100CB0008842704730B50B460146002020220124AF
:100CC00009E021FA02F59D4205D303FA02F5491B1A
:100CD00004FA02F52844151EA2F10102F1DC30BD30
:100CE0002DE9F05F0546002092469B468846064661
:100CF000814640241BE0284641464746224600F0F4
:100D00002FF853465A46C01A914110D3114618463F
:100D1000224600F016F82D1A67EB01084F462246CE
:100D20000120002100F00DF817EB00094E41201EB4
:100D3000A4F10104DFDC484631462A464346BDE8BB
:100D4000F09F202A04DB203A00FA02F100207047CD
:100D50009140C2F1200320FA03F3194390407047F9
:100D6000202A04DB203A21FA02F00021704721FA00
:100D700002F3D040C2F12002914008431946704767
:100D8000202A06DBCB17203A41FA02F043EAE0734F
:100D900006E041FA02F3D040C2F12002914008433C
:100DA000194670470268114413780160184670476D
:100DB000D160044951610449116200211161114659
:100DC00000F042B9A50D00083D100008426842B18C
:100DD000016811F8013B23B1521EC0E90012184608
:100DE00070470121C160881E704742685AB1C368CC
:100DF000016843B983688B4205D0491E521CC0E983
:100E00000012002070474FF0FF3070470FB40023EE
:100E100000B589B00CA900910B996FF00042CB602E
:100E20001E4B06931E4B07930423CDE901321D4A46
:100E3000089202466B460020FFF7E6FA09B05DF81B
:100E400014FB70B586B006464FF0FF300091CDE937
:100E50000101002015460C4604903246694604A85C
:100E6000FFF7D4FF02460498211825B108B10846BF
:100E700000E020462860049800280DD0002A02DDFA
:100E80000098884208D0081B0094CDE9010432463E
:100E9000694604A8FFF7BAFF06B070BDCD0D000883
:100EA000EB0D00083D1000080029A8BF7047401C4A
:100EB000490008BF20F00100704710B4B0FA80FC70
:100EC00000FA0CF050EA010404BF10BC704749B1AD
:100ED000CCF1200421FA04F411FA0CF118BF01211D
:100EE00021430843A3EB0C01CB1D4FEA00614FEAFD
:100EF000102042BF002010BC704700EBC3501044CC
:100F00000029A4BF10BC7047401C490008BF20F056
:100F1000010010BC704710B5141E73F1000408DA0C
:100F2000401C41F1000192185B411A4301D120F0AD
:100F3000010010BD2DE9F04D92469B4611B1B1FA6A
:100F400081F202E0B0FA80F220329046FFF7F9FE1B
:100F500004460F4640EA0A0041EA0B0153465A464E
:100F6000084313D0114653EA010019D0C8F14002DA
:100F70005046FFF7F5FE05460E4650465946424696
:100F8000FFF7DFFE084305D0012004E02046394684
:100F9000BDE8F08D0020054346EAE0762C43374358
:100FA0000A986305E40AA0EB08000022FD0A44EA5F
:100FB00047540A3002D500200146E9E7010510191F
:100FC0006941DDE9084500196941BDE8F04DA2E736
:100FD0000EB540F2334202920022CDE900221346C0
:100FE000FFF7A8FF03B000BDC1F30A52C1F313011C
:100FF00040F2FF3341F480119A4202DA00200146A8
:10100000704740F233439A42A2F2334202DC52422A
:10101000FFF7A6BEFFF795BE064C074D06E0E06859
:1010200040F0010394E8070098471034AC42F6D32F
:10103000FFF760F880A10008A0A10008C0B24FF43B
:10104000F05100F0BBB900002DE9F34F8BB04FF029
:10105000000801F10C000C464FF0010B46460DF163
:10106000080A01906269012101989047051E2DD060
:10107000252D2CD0216A8847C0B1626901210198D1
:101080009047216A88470028F7D1411E626901987C
:10109000904700E0761CA1690B988847216A884731
:1010A0000028F7D1E1690B988847DBE7A1690B9825
:1010B00088470746A84201D1761CD3E7E1690B981F
:1010C00088477F1C02D1B8F1000F6FD046E100279E
:1010D00062693D463946019890472A2804D16269E1
:1010E0000121019890470125DFF88492626901216E
:1010F00001989047A0F130010A290AD24F45E5DC5A
:1011000007EB870100EB4107303FDFD445F01005C6
:10111000ECE7E90601D46FF000476C280AD04C28B0
:1011200014D0682815D06A280DD074281CD07A28CD
:101130001AD01DE062690121019890476C2802D005
:1011400045F0040514E045F002050DE045F02005EA
:101150000AE06269012101989047682802D045F0B1
:10116000080505E045F40065626901210198904792
:10117000C4E9015765283DD019DC58287AD00CDC29
:10118000452837D004DC252826D0412831D131E04C
:1011900046282FD047282CD12CE05B2877D0612817
:1011A00028D063287CD0642823D15AE0D0E06F286F
:1011B00048D008DC66281DD067281BD0692821D0BC
:1011C0006E2816D127E0702845D0732868D075287E
:1011D00047D078280DD14DE0A1690B988847054686
:1011E00025283FF469AFE1690B9888476D1C3FF4EF
:1011F0006AAFB3E023466A466FF001000B99FFF730
:1012000003F99EE045F040006060A80723464FF0D8
:10121000000236D43EE0E8077FF447AF2068011DA6
:1012200021600068290501D506701BE7290701D553
:10123000068017E7A90703D5F117C0E9006111E798
:1012400006600FE745F040006060A80723464FF0B6
:10125000080216D41EE040F60E0125EA0100606087
:1012600016E045F040006060A80723464FF00A02F0
:1012700007D40FE045F040006060A80708D523467A
:1012800010226FF001000B99AFF3008059E007E0E6
:10129000234610226FF001000B99AFF3008050E05D
:1012A0004FF000094F464B46632802D05B2806D01A
:1012B00040E0E80601D40120A06001273AE062691D
:1012C0000121019890475E2805D14FF0010962691C
:1012D000494601989047216939B900210A46534689
:1012E00043F82120491C0829FADBB0B3216969B908
:1012F000C11700EBD16253110AEB830122F01F02E8
:10130000821A01200B68904003430B60626901213F
:10131000019890475D28E8D1B9F1000F09D000206D
:10132000514651F82020D24341F82020401C082883
:10133000F7DB02AB224600976FF001000B99AFF389
:10134000008000280CDA401C08D1BBF1000F05D04A
:101350004FF0FF300DB0BDE8F08FFFE74046F9E7F2
:10136000E90701D108F1010806444FF0000B79E6C6
:10137000CCCCCC0C70B521F0004303430CD0C1F3AE
:101380000A550024D5EB040564EB0403D617AD1A07
:10139000B34102DB0020014670BD201841EB025131
:1013A00070BD0EB540F2334102910021CDE900112C
:1013B0000A460B46FFF7BEFD03B000BD7F2801D9EA
:1013C000002208E0064A02EB5002C007127800D162
:1013D000120902F00F0201209040084070470000FF
:1013E000209F000870B58C1810F8015B15F00703FA
:1013F00001D110F8013B2A1106D110F8012B03E0AE
:1014000010F8016B01F8016B5B1EF9D12B0705D4B5
:101410000023521E0DD401F8013BFAE710F8013BFE
:10142000CB1A921C03E013F8015B01F8015B521E1A
:10143000F9D5A142D8D3002070BD00000978012958
:1014400004D0022905D1034902F036B801494039D8
:10145000FAE77047FC0800201CB506F0E9F9022005
:101460001B49C401CDE900010023224619A11C48F3
:1014700006F000FE012802D11AA003F0A3FB1449D4
:101480000320091DCDE90001002322461AA11D48B1
:1014900006F0F0FD012802D11BA003F093FB0C49DC
:1014A00004200831CDE90001002322461BA11F487A
:1014B00006F0E0FD012802D11DA003F083FB0448E3
:1014C000001F006806F030FABDE81C4006F0BEB907
:1014D00018000020444F475F5461736B0000000008
:1014E00085160008637265617420444F475F54613C
:1014F000736B0D0A000000004D4F544F525F546152
:10150000736B0000691800086372656174204D4FA9
:10151000544F525F5461736B0D0A0000456C656354
:1015200074726F5F5461736B00000000CD16000889
:10153000637265617420456C656374726F5F54619A
:10154000736B0D0A00000000FEE70029016802D05D
:1015500041F0010102E04FF6FE7211400160704758
:1015600001684FF6FE721140016000210160416088
:101570008160C1603149314A0839904203D14868DD
:1015800040F00F0006E02D4A1432904204D1486822
:1015900040F0F00048607047284A2832904203D15A
:1015A000486840F47060F5E7244A3C32904203D129
:1015B000486840F47040EDE7204A5032904203D131
:1015C000486840F47020E5E71C4A6432904203D139
:1015D000486840F47000DDE7184A7832904203D141
:1015E000486840F07060D5E7154A111F904203D15A
:1015F000086840F00F0006E0114A1432904204D10E
:10160000086840F0F000086070470D4A28329042A8
:1016100003D1086840F47060F5E7094A3C32904213
:1016200003D1086840F47040EDE7054A503290421B
:10163000EAD1086840F47020E5E7000008000240A5
:1016400008040240406880B2704730B5026847F62F
:10165000F0739A430C6A8B682343D1E904452C4309
:1016600023438C692343CC6923434C6A23438C6A0C
:10167000234313430360CA6842600A688260496872
:10168000C16030BDCCB04FF496766D460D4C4FF432
:101690007A7704F097FD31466846FEF7AEFD218863
:1016A0000320491E05E014F810202B18401C03F8F5
:1016B000032C8142F7DC684602F060FD384606F0F4
:1016C0001BF9E6E7E403002070470000DFF87490A0
:1016D0001A4D1B4C1B4E00274FF08008A9F16C09D6
:1016E00003F06AF82088800B20D017A003F06AFA74
:1016F000297816A003F066FA2878612806D06228B7
:1017000006D0632816D0642805D115E0042000E037
:10171000012001F079FB278000213046FFF715FFFB
:10172000C9F8708001213046FFF70FFF142006F042
:10173000E3F8D5E70220ECE70320EAE73C090020C4
:10174000200300206C000240613F000025630A0076
:10175000F0B5CC78002204F00F03E40601D58C78B4
:1017600023430C784FF00F0C14F0FF0F4FF0010ED5
:101770001BD005680E880EFA02F42640A64210D14E
:1017800096000CFA06F725EA070703FA06F5CE7865
:101790003D43282E02D0482E02D002E0446100E0F2
:1017A0000461521C082AE5D305600A88FF2A1CD967
:1017B0004468002202F108060EFA06F50E882E4053
:1017C000AE420ED196000CFA06F7BC4303FA06F7B8
:1017D000CE783C43282E00D14561CE78482E00D1EA
:1017E0000561521C082AE5D34460F0BD0AB10161CD
:1017F000704741617047FEE738B508780C4603280A
:1018000013D1164DE0682968FEF727FD70B16968AD
:10181000E068FEF722FD002807D101200023009098
:101820001A4619460E4800F0A5FB38BD0D48A0F534
:10183000BE71B0F908200B789A42F6D1B0F91820A1
:101840004B789A42F1D1B0F9280089788842ECD1DE
:10185000BDE838400248A83801F022BE3800002018
:1018600028080020B0010020084C094DE0883128EC
:1018700002D1686806F084F9E088322802D16868ED
:1018800006F00EF9142006F037F8EFE7E403002025
:10189000140000200978052913D2DFE801F00305C0
:1018A000080B0E0007490AE00649283107E0054900
:1018B000683104E00349A83101E00249FC3101F03C
:1018C000FBBD704780070020FEE700000F4B02229F
:1018D000986901280AD199681868884206DC0028AE
:1018E00004DB401C1860884200D19A61084B98695B
:1018F00001280AD199681868884206DC002804DBB0
:10190000401C1860884200D19A617047040700208B
:101910002007002070B51D4E3146B369086849683C
:10192000451C022B13D03446E2682468641E042B45
:1019300019D0062B0AD1904208DC002806DB422988
:1019400004D13460002C01D10720B06170BDB268B1
:101950009042FBDC0028F9DB4629F7D1356095423F
:10196000F4D10320F1E70523462906D0422909D006
:101970005429EBD1904203D070BD35609542FBD124
:10198000B36170BD34609442FAD070BD040700208A
:1019900070B51D4E3146B36908684968451C022B75
:1019A00013D03446E2682468641E042B19D0062B39
:1019B0000AD1904208DC002806DB422904D13460B9
:1019C000002C01D10720B06170BDB2689042FBDCF1
:1019D0000028F9DB4629F7D135609542F4D1032080
:1019E000F1E70523462906D0422909D05429EBD135
:1019F000904203D070BD35609542FBD1B36170BD9C
:101A000034609442FAD070BD200700207047000077
:101A100030B50F23C27801780125F2B1144A12685B
:101A200001F1E02102F4E062C2F5E062120AC2F1C3
:101A30000404D3404278A24084781C40144322011D
:101A400081F80024007800F01F018D4040098000DB
:101A500000F1E020C0F8005130BD01F01F008540CA
:101A60004809800000F1E020C0F8805130BD00003E
:101A70000CED00E00249084302490860704700008D
:101A80000000FA050CED00E02DE9F0410C4E88460F
:101A900007460025002404F00100B84205D1434662
:101AA00032782946204600F049F8641CE4B2802CC4
:101AB000F1D36D1CEDB2082DECD3BDE8F081000030
:101AC000240300202DE9F0410D460446164609681E
:101AD0000068FFF7DBF82BD029682068FEF702FECC
:101AE00020F000401349FFF7D1F801D228681EE02A
:101AF0003046FFF76CF800220F4BFEF78EFF26688A
:101B00000746884631462868FEF7ECFDFFF75FF888
:101B10003A464346FEF781FF05460F463046FFF73B
:101B200056F82A463B46FEF75FFEFFF793F8206023
:101B3000BDE8F0819A99193E0000244010B57F2835
:101B400017DC072915DC002813DB002911DB094C01
:101B5000262A04EBC11106D05E2A07D07C2A08D1C0
:101B60000A5C1A4304E00A5C9A4301E00A5C5A40AA
:101B70000A5410BD3C0A002070B5002500212846FB
:101B800001F0DBFA0024002002F0E7FA641CE4B262
:101B9000802CF8D36D1CEDB2082DEFD370BD000082
:101BA0004FF480610148FEF728BB00003C0A00208A
:101BB00010B5084C0648606394F82A00FEF7A5FFAC
:101BC000A06394F82900FEF7A0FFE06210BD0000BA
:101BD000000020C2B00F00202DE9F041164C0D4648
:101BE0000746D4E90D01FFF751F816D1134E606B8B
:101BF000B04212D001F0F4F8012810D002280ED023
:101C0000032806D0042808D17A6812B178782946CA
:101C100090470020A66384F82800BDE8F081288959
:101C200038B10020288194F82900FEF76EFF206368
:101C3000F3E70120F6E70000B00F0020000020C20B
:101C40002DE9FC41554C05466068007880070DD5AC
:101C5000002001F083FA55210020FFF715FFAA218B
:101C60000120FFF711FF012001F078FA60680C34C1
:101C70004079FEF74AFF494902463831081FFFF70D
:101C800021FF002001F06AFAA06AFEF754FF032644
:101C90002627CDE9007602B2617F6623404802F034
:101CA0003AF8012001F05AFAA06AFEF744FFCDE9A4
:101CB000007602B2617F6623394802F05AF8A06AC2
:101CC000FEF739FF07B2E8681021801C00F04BFDD9
:101CD000C0F180004110E8681023801C00903A4653
:101CE0002F4802F05DF9A06AFEF725FF143002B21A
:101CF0002CA00090617F102329480F3102F050F989
:101D0000A06AFEF718FF143002B227A00090607F8F
:101D10001023C0F16201224802F042F9A06AFEF7E6
:101D20000AFF1427CDE90076123002B2617F332317
:101D30001B4802F01EF8A06AFEF7FDFECDE9007612
:101D40001230617F02B23323154833310C3C02F06C
:101D500010F8022001F002FA28890128606B16D0E1
:101D6000FEF7E9FE123005B21049E06AFEF768FCA2
:101D7000FEF7E1FECDE9007601B233232A4608489A
:101D800001F0C9FFBDE8FC41012001F0E7B9FEF711
:101D9000D2FE123005B2E06AEAE70000B00F002080
:101DA00048030020596573004E6F000000004C424C
:101DB00070B504461148E0634FF0814020644FF055
:101DC000854060640E48A06494F8270020F00F005E
:101DD00084F82700002084F8250084F826000420D9
:101DE00084F824000025074A2946204600F0F9F926
:101DF0006D1CEDB2062DF6D370BD0000000030C2A0
:101E000000003042420300200022C264012904D0B5
:101E1000022901D10249016570470249FBE7000030
:101E20000000C0410000C0C1F8B50D46064614468A
:101E30001021104600F097FCC0F1800041101023E3
:101E40002A4606F13200009402F0AAF8F8BD00001C
:101E50002DE9F0410446002790F82400884600F060
:101E60000F003E463D46032821D00ED294F82C1098
:101E700001F11A01CEB2234901EB4000407800F194
:101E80001000C5B205F11800C7B294F8240000F0A4
:101E90000F00042834D0B8F1000F22D033463A4660
:101EA0002946BDE8F04117480C3001F09DBE54F8BA
:101EB000200F217A50F82100102100F054FCC0F1CD
:101EC0008000C0F34705217A206850F821001021D6
:101ED00000F049FC2844C7B2207D1030C6B2203C37
:101EE000D3E7002001F03AF9064833463A4629463E
:101EF0000C3001F079FEBDE8F041012001F02EB96F
:101F0000BDE8F0813C0300202DE9F047044608A815
:101F1000174690E82003DDE90BA2032020701E463F
:101F2000204600F087FF1048A0601048E06010488D
:101F3000A76120612677002184F82810042084F806
:101F40002400256284F8148084F8159084F816A083
:101F500010206085182222866022E2856186208713
:101F60008020E086BDE8F087B11D0008B12200089E
:101F7000452000082DE9F84305468DF800308DF81E
:101F800001208DF8021015494078DDF8208049784D
:101F900008276E46884216D195F82500800610D194
:101FA0000224A86907EB0411325D405E904204D020
:101FB000E1B24346284600F031F9641E64B2002CB9
:101FC000EFDABDE8F883022007EB0013315CAA6961
:101FD000401E40B2D1520028F6DAF2E7B00F0020DE
:101FE00010B5037FFF2921D08B4200D80021124C6D
:101FF00043786478A34216D190F8273062F3010346
:1020000080F827300023436490F82530012A43F0FC
:10201000400380F825300CD04FF08342074B826498
:1020200090F82820DA7080F8281010BD5B1ED9B215
:10203000DDE7034AF2E70000B00F0020280300208C
:10204000000080C17FB5044600F0CAFE0022009265
:1020500001920292039294F827100326C1F38103A0
:10206000ABB10425012B2DD0022B0FD104285ED05B
:10207000032839D00822062301285ED0022874D014
:10208000042803D16946204600F08EF87FBD012860
:102090000CD004280AD002280ED00328F6D14148DB
:1020A000C2718271204600F0D1FE7FBD21F00C008C
:1020B000001D84F8270034E021F00C00001D84F896
:1020C000270031E003280FD0042819D001281DD0A3
:1020D0000228EAD194F82400010725D000F00F006F
:1020E000401E84F824007FBD84F8245069462046B1
:1020F00000F05AF814F8270F20F00C0020707FBD74
:1021000021F00C00083084F827007FBD94F82400EB
:1021100000F00F00401C84F8240000F00F0003289A
:10212000F3D984F824207FBD84F824607FBD21F09A
:102130000C00001D84F82700A4E794F8240000F0A8
:102140000F0103290AD2A06902EB0112855C03EB9F
:1021500001120123805C2844C2B216E094F82800E2
:10216000401CC1B2012219E0FFE794F8240000F0FE
:102170000F0103290DD2A06902EB0112855C03EB6C
:102180000112805C281AC2B20223204600F046F8F1
:102190007FBD94F82800401EC1B202222046FFF7FE
:1021A0001FFF7FBD2803002030B490F8242002F0E8
:1021B0000F02032A06D2836903EB02123CCA81E8AC
:1021C0003C0006E00A7090F82830026A52F823209A
:1021D000CA604268002A02D0407830BC104730BC48
:1021E000704730B5052918D880694FEA51034FF080
:1021F000080404EB0313C05ECD074FF00A0407D0B8
:10220000642390FBF3F503FB150090FBF4F003E06F
:1022100090FBF4F304FB1300505430BDF0B5856916
:102220000824042704EB011607EB0117EF5FAC5DF0
:1022300097423CDC022707EB0117EF5F974236DB42
:10224000944234D0AA5390F8275063F3010580F8E4
:1022500027506425B2FBF5F305FB13260A23B6FBD2
:10226000F3F7B4FBF5F605FB1645B5FBF3F50126D0
:10227000AF420BD090F8257006EB410506FA05FC3D
:1022800047EA0C0780F8257080F82650B2FBF3F57A
:1022900003FB1522B4FBF3F503FB15439A4206D06A
:1022A00010F8252F49008E40324302704170F0BD76
:1022B0002DE9FE4F0446FE480326282700784FF0FC
:1022C0000108E8B1CDE90076702304220821F9481D
:1022D00001F04FFDF74E607D203E06F11407717846
:1022E000B1EB500F6ED8207D00903979B4F92C20D5
:1022F0001823F0481C3101F093FB207D00906CE026
:10230000EB4D68684079FEF700FC024604F140019D
:10231000081FFFF7D7FB68684079FEF7F6FB024617
:1023200004F14801081FFFF7CDFBE06BFEF703FC4B
:10233000CDE9007602B270230821DE4801F019FDD4
:102340004FF08241E06BFEF77BF9FEF7F4FBA085CE
:102350000A21A5F1E000FDF750FFA069237DB0F947
:102360000810B0F918200291CDE90023B0F9282017
:10237000D1A1A5F1E00002F029FDA5F1E0000022C5
:1023800000901823114604F12A0001F009FE606C48
:10239000FEF7D1FBA08694F82810206A50F821207F
:1023A00000212046FFF740FDD4E90F01FEF76EFC47
:1023B00006D1D4E91101FEF769FC01D185F800804E
:1023C000BDE8FE8F202500953979B4F92C2018231B
:1023D000B8481C3101F024FB0095B978B4F92C20E1
:1023E0001823B4481C3101F01BFB617D70788142D9
:1023F00001D1002000E0401C707094F82700C0F369
:102400008100C0B1012802D002281AD115E0A07DB8
:10241000B178B1EB500F01D8002100E00121204636
:10242000FFF716FDA17DB078814201D1002000E0C8
:10243000401CB07005E0002100E001212046FFF7BC
:1024400007FD94F82710880743D094F825008206EA
:1024500034D0420634D4964A01F00301F171526837
:102460001278520717D52046FFF7CEFC94F82610B5
:1024700094F8252008FA01F000F03F000240B27104
:102480008C4A2046921FFFF7ACFE94F82600401CB1
:1024900084F8260017E000F03F00B0710025854A5F
:1024A0002946921F2046FFF79CFE6D1CEDB2062DBB
:1024B000F5D3F1792046FFF7A7FC04E0400602D5EA
:1024C00001F00300307294F8270020F0030084F834
:1024D0002700F07970B194F8250080060AD074487E
:1024E0004068C079FEF711FB024604F15001081F55
:1024F000FFF7E8FA307A70B194F8250040060AD563
:102500006B484068C079FEF700FB024604F14801C1
:10251000081FFFF7D7FA04F12A000025BB460190F7
:102520000120B179A840084204D0F079022842D0B5
:10253000012871D05F481823801F405D00F00F0113
:102540000A20B1FBF0F200FB1210303000901BF8B3
:1025500005100022019801F063FA6D1CEDB2062D02
:10256000DED3D4E91301FEF791FB23D194F82520A3
:1025700090061FD04E484068007840077ED5012362
:1025800094F8261003FA01F505F03F0512EA05005C
:10259000B07175D0F1792046FFF736FC454A94F8C2
:1025A0002610921F2046FFF71CFE94F82600401CC0
:1025B00084F8260071E0DFF8FC904FF00A0AA9F1D8
:1025C000060919F8050000F00F01B1FBFAF20AFB49
:1025D00012173E493037E06CFEF784F8FEF7ABFA8D
:1025E00002B20097D8461BF805101823019801F095
:1025F00017FA19F8050000F00F00401CB0FBFAF2C2
:102600000AFB12073037E06CFEF795FA009702B22A
:1026100018F8051030E0FFE7DFF898804FF00A095E
:10262000A8F1060818F8050000F00F01B1FBF9F257
:1026300009FB121725493037E06CFEF701F8FEF769
:102640007AFA02B20097DA461BF8051018230198AF
:1026500001F0E6F918F8050000F00F00401E90FBAD
:10266000F9F209FB12003030C7B2E06CFEF763FAF2
:1026700000971AF8051002B218236BE707E0FFE78E
:10268000491CC9B284F826100629FFF479AF00204E
:10269000F07102F0C00084F8250094F8250040068F
:1026A00018D5307A4FF0834101282ED035460FE0FF
:1026B000B00F002048030020253032642563253008
:1026C0003264256325303264000000000000C04100
:1026D000022831D094F82810206A50F821200021D7
:1026E0002046FFF7A1FBD4E91101FEF7CFFA7FF4F2
:1026F00067AE94F8250041067FF562AE0021317285
:1027000000F03F0084F825005AE6606CFDF798FF62
:10271000FEF711FA01B294F82820206A50F822201E
:102720002046FFF781FB606CFEF705FA01B2F078F6
:10273000226A52F82020D3E7606CFDF7D3FFFEF742
:10274000FAF901B294F82820206A50F82220204695
:10275000FFF76AFB606CFEF7EEF901B2EA78206AD7
:1027600050F82220BCE710B50C46082905D0FDF72B
:102770006DFD6043C0F3470010BDFDF767FD00EB42
:1027800040004006000E10BDF8B50121082001F000
:10279000A9FD14208DF8030003208DF802000D4ED2
:1027A0004FF48064ADF8004069463046FEF7D0FF34
:1027B0006500ADF8005069463046FEF7C9FF0122BA
:1027C00021463046FFF712F8012229463046FFF72E
:1027D0000DF8F8BD000C01402DE9F047164E00241D
:1027E00007464FF080084FF40069351528FA04F0C9
:1027F000384201D0012200E0002249463046FEF76F
:10280000F5FF012229463046FEF7F0FF0022294657
:102810003046FEF7EBFF641CE4B2082CE6D301223D
:1028200029463046FEF7E2FF29463046BDE8F0472C
:102830000022FEF7DBBF0000000C014070B5012252
:102840000B4DD40221462846FEF7D0FF0122960206
:1028500031462846FEF7CAFF002221462846FEF7E9
:10286000C5FF31462846BDE870400022FEF7BEBFD6
:10287000000C014070B50A4D4FF40064002221465F
:102880002846FEF7B3FF012291022846FEF7AEFF6D
:1028900021462846BDE870400122FEF7A7BF000090
:1028A000000C014010B500214FF47A720020401C4A
:1028B0009042FCD3491C9142F8D3FFF765FFAE204C
:1028C00001F03AFCD52001F037FC802001F034FC07
:1028D000A82001F031FC3F2001F02EFCD32001F0B4
:1028E0002BFC002001F028FC402001F025FCA12059
:1028F00001F022FCC82001F01FFCDA2001F01CFCD2
:10290000122001F019FC812001F016FCCF2001F00B
:1029100013FCD92001F010FCF12001F00DFCDB20AC
:1029200001F00AFC302001F007FCA42001F004FCB7
:10293000A62001F001FC8D2001F0FEFB142001F027
:10294000FBFBAF2001F0F8FBBDE81040FFF714B926
:102950007CB50C4605464FF08141FDF771FEFEF750
:10296000EAF802B2E06800901646082304212248E3
:1029700001F016FBE0680378242B11D02B2B0FD02D
:102980003D2B0DD07E2B0AD1B4F9080003F0F0FCEA
:102990000090324608235F21174801F001FB7CBDFF
:1029A0004FF0804631462846FDF74AFE0546FEF7C1
:1029B000C2F802B20C200221CDE9000103465F21DA
:1029C0000D4801F0D6F920890028E8D03146284684
:1029D000FDF736FE4FF07E51FDF732FEFEF7ABF805
:1029E00002B201210620CDE900010723622102483D
:1029F00001F091F97CBD00004803002000214FF058
:102A00008342C0E90812816201638163704700005C
:102A100070B5164604460120049A20701D462046D3
:102A200000F008FA0B48A0600B48E0600B482061FA
:102A30000020607526750420A5616077002005E000
:102A4000A16901EB00110870401CC0B2217D8142D8
:102A5000F6D870BDFD2900082D2C0008612A000859
:102A60002DE9F041044600F0BBF96C4A01214FF01A
:102A7000834502F1D406012818D002285AD0032831
:102A800071D0042833D1627D0C20A36900EB0210C1
:102A90000825185805EB021533F905E007784FF0C3
:102AA000060C2B2F7CD03D2F7AD095E03078002873
:102AB0001DD0207F00281AD12078042801D182F867
:102AC000BD10607DA8B1401EC6B266755449606AEB
:102AD000FDF70EFE07463046FEF717F83946FEF7BB
:102AE000D5F821D22946606AFDF7AAFD6062BDE8EB
:102AF000F0817068C07A0028F9D02177207D401ECF
:102B00006075207D617F884209D946486063207DD9
:102B10004021404201EB0010FDF7EEFFE6E7000127
:102B20001038FDF7E9FF03E02946606BFDF7DAFD99
:102B30006063DCE730780028D9D0207F0028D6D128
:102B40002078042801D182F8BD10227D607D521EBC
:102B5000904209D17068C07A0028C8D0217700203F
:102B600060756062E4E721E0401CC6B266756FF0F4
:102B70000301606AFDF72CFE0746607FFDF7C5FF85
:102B80003946FDF7AFFD0746701CFDF7BEFF39461D
:102B9000FEF786F805D22946606AFDF7A3FDA5E792
:102BA00009E02946606BFDF74BFDC1E72046BDE813
:102BB000F04100F04BB90CEB02129A5A22B1BEF16F
:102BC000000F05D000225A5302783D2A02D003E0BC
:102BD0000122F8E7144A117000787E280CD02428CE
:102BE00018D06268002A82D0617DA06900EB0111D3
:102BF0006078BDE8F04110473172607DA1690CEB4F
:102C000000128A5A002A94D16268002A91D001EBFE
:102C10000011EDE786F8281069E70000DC0E0020BF
:102C2000000080BD00004042280300202DE9FC4147
:102C300004468169407D0C2202EB001008580821EF
:102C4000FFF791FD0830FDF760FFE062607D8101D4
:102C5000207D401E91FBF0F000B2401CFDF74CFFC0
:102C60005D4FE06378680079FDF74FFF024604F19D
:102C70002401081FFEF726FF78680079FDF745FF5D
:102C8000024604F12C01081FFEF71CFF786800794A
:102C9000FDF73BFF024604F13401081FFEF712FF67
:102CA00078680079FDF731FF024604F13C01081F06
:102CB000FEF708FF052300227B21484800F094FF1F
:102CC00005233F227B21454800F08EFF4023002250
:102CD0007D21424801F07DF9A06BFDF72CFF002516
:102CE00000B2CDE9000505232A467B213B4801F0CF
:102CF00012F8207F28B1D4E90C01FDF7C7FF00D1FD
:102D00002577364E3878203E4FF0000528B347E04F
:102D10007868407A0028607D0DD00001FDF7F5FE4F
:102D200080462846FDF7F1FE216AFDF7E1FC4146A9
:102D3000FDF7D8FC05E0281AFDF7DEFE216AFDF755
:102D4000D7FC616BFDF77CFC3061A06900EB0511DD
:102D50003069FFF7FDFD6D1CEDB2207DA842D7D88C
:102D6000D4E90801FDF792FF1DD101203870607D84
:102D700000014042FDF7C0FE616BFDF761FC60623F
:102D8000206210E02801FDF7C0FE216AFDF758FC23
:102D90003061A16901EB0511FFF7DAFD6D1CEDB2A1
:102DA000207DA842EED8022000F0D8F9A06AFDF7F5
:102DB000C2FE05B2206BFDF7BEFE02B2022110205A
:102DC000CDE900012B460021044800F0A4FFBDE836
:102DD000FC41012000F0C2B9B00F002048030020E0
:102DE000084A002011795379994209D002F109006B
:102DF000405C491CC9B21171042901D10021117133
:102E0000704700002803002030B5094B59791D791F
:102E10000A46491C01F00304AC4208D003F109043E
:102E2000A054C8B25871042801D10020587130BD97
:102E30002803002041700021817042604178024ADD
:102E400042F82100704700003C0E002081780348C2
:102E5000417000218170017070470000B00F0020A8
:102E6000017F027D914201D1002101770149016278
:102E700041627047000080BF2DE9F0411546DDE951
:102E800006720446052020701E462046FFF7D2FF3A
:102E900025750020A661207767750448A060044866
:102EA000E06004482061BDE8F0810000612E000868
:102EB000D52E0008B92E000810B50446FFF790FF84
:102EC000032801D0042804D12046BDE81040FFF7B4
:102ED000BDBF10BD2DE9F04F8BB0654E00250446F7
:102EE000099570688078FDF710FE024609A904F183
:102EF0002000FEF7E7FD70688078FDF706FE0246C9
:102F000009A904F12400FEF7DDFD217F207D4FF0AB
:102F1000010A81427ED2A06901EB410200EB8207E7
:102F20004FF07E5BB1B3002631E0A06906EB4601AD
:102F300000EB8105D9465946606AFDF781FB804662
:102F4000B5F90600FDF7D8FD4146FDF7D1FBFDF7C9
:102F5000F2FD0FFA80F84946206AFDF771FB8146C1
:102F6000B5F90400FDF7C8FD4946FDF7C1FBFDF7C3
:102F7000E2FD2A686B7ACDE9003201B2CDF808A0F3
:102F80002B7A42463B4800F0C7FD761CF6B2207F04
:102F9000B042CAD85E465946606AFDF751FB054605
:102FA000B7F90600FDF7A8FD2946FDF7A1FBFDF7DF
:102FB000DBFD85B23146206AFDF742FB0646B7F9D4
:102FC0000400FDF799FD3146FDF792FBFDF7B3FDD7
:102FD00002B22748BE7A7B7A406841780078C0F315
:102FE000C000CDE90301CDE90136387A00902B46C7
:102FF0002048396800F004FF00280ED0207F401CD4
:10300000C0B220776168002907D08DF8140060787D
:1030100005A900E004E0626890470BB0BDE8F08FBE
:10302000607D00F00300012804D00228F5D10025BE
:10303000564615E02577F0E7A06905EB450100EB62
:1030400081000168427ACDE900210296037AB0F945
:103050000620B0F90410074800F05EFD6D1CEDB2CB
:10306000207DA842E8D860680028D6D0207FCCE731
:10307000B00F00204803002038B5044604980090A3
:103080002046FFF7C5FC022020700148206138BDB2
:10309000953000082DE9F0410446FFF7E1FC134D9F
:1030A0002878002820D0002108220C260B46012772
:1030B00016E0A06906EB011C50F80CC09CF800C09B
:1030C000BCF13D0F0AD194F815C08C4502EB011CF0
:1030D00002D020F80C3001E020F80C70491CC9B275
:1030E000207D8842E5D82B70BDE8F08128030020C0
:1030F000014800F003B800003C0A00202DE9F0412F
:103100000746002505F1B000C0B201F015F8002017
:1031100001F012F8102001F00FF8002407EBC5169B
:10312000305D01F01AF8641CE4B2802CF8D36D1CF9
:10313000EDB2082DE6D3BDE8F08110B50C4640F0A5
:10314000B00000F0F9FF102040EA141000F0F4FF86
:1031500004F00F00BDE8104000F0EEBF064930B1AA
:10316000012806D0022801D15E2008707047262071
:10317000FBE77C20F9E7000024030020074A002138
:10318000C0E90912064AC0E90B2141634FF08241B0
:1031900081630449C163044901647047000010421F
:1031A0000000F0C100007442000014422DE9F0411B
:1031B0001746DDE9068200251E4604460570FFF726
:1031C00039FE0C48A0600C48E0600C48206184F88F
:1031D00020502775C4E90668002005E0A16901EBCD
:1031E00000110870401CC0B2217D8142F6D8BDE8B4
:1031F000F08100007D310008ED3200080132000846
:1032000070B50446FFF7ECFD00253549354E364ACA
:10321000052823D2DFE800F02203233B400010788A
:1032200000281BD094F8200030B1401E84F8200004
:10323000A06AFDF705FA0EE05068807A00280DD0EC
:10324000207D6FF02301401E84F82000207D401E69
:103250004843FDF751FCA062E663656370BD1078DA
:103260000028FBD0237D94F820005B1E984206DAEC
:10327000401C84F82000A06AFDF734FAEBE75068A0
:10328000807A0028EAD084F82050A562E4E720463E
:10329000BDE87040FFF7DABD94F820100C23A06958
:1032A00003EB01130125C3581B787E2B02D0242B7E
:1032B00013D009E0157294F82010A069062202EBE1
:1032C0000112825A002AC9D16268002AC6D000EBD6
:1032D00001116078BDE87040104782F8285070BD39
:1032E0000000104200007442B00F00202DE9FE4F94
:1032F000DFF8A08104464546D8F80400C078FDF701
:1033000004FC024604F12801081FFEF7DBFB686895
:10331000C078FDF7FAFB024604F13001081FFEF702
:10332000D1FB6868C078FDF7F0FB024604F1380174
:10333000081FFEF7C7FB6868C078FDF7E6FB02468A
:1033400004F14001081FFEF7BDFB94F820000C2299
:10335000A16902EB00100E58E06BFDF7ECFB07B221
:103360001821B01CFFF7FFF9C0F1780000EBD07016
:103370000821B61C01EB600118233A464648009626
:1033800000F00EFE606BFDF7D6FB03B200211B20A0
:10339000CDE900012422404800F0BDFC28784FF020
:1033A00001094FF01E0A4FF0000510B14E46574676
:1033B0006BE0DFF8E8B03BE0D8F80400007A0028C2
:1033C00094F8200012D000EBC0008000FDF79DFBB8
:1033D00006462846FDF799FB616AFDF789F95946CB
:1033E000FDF72EF93146FDF77DF908E0281AFDF7C3
:1033F00083FB616AFDF77CF95946FDF721F9064622
:10340000E06AFDF798FB07B23046FDF794FBE269EE
:10341000C5EB051302EBC302CDF800A0CDE90129ED
:1034200001B21E233A461C4800F076FB6D1CEDB23B
:10343000207DA842C0D8D4E90901FDF727FC0AD1B4
:1034400088F8009094F820006FF023014843FDF7BE
:1034500053FBA0626062BDE8FE8F606AFDF76BFB04
:1034600005EBC50100EB8100313001B2E069C5EB2D
:10347000051200EBC2000097CDE901061E230022D1
:10348000054800F049FB6D1CEDB2207DA842E4D850
:10349000E1E70000B00F0020480300200000444294
:1034A000002805D0417803484170002101708170E7
:1034B00070470000B00F0020002906D08870034834
:1034C000497841700021017081707047B00F002071
:1034D0002DE9F0412349A1F5BA76487856F8200045
:1034E00000283CD00478002514B1012C08D103E059
:1034F00090F82030826901E0437D826902EB031578
:103500008846C16807468847012C08D03CB198F826
:103510000100396956F82000BDE8F041084798F8E5
:1035200008004446800708D194F82800800704D199
:103530006078396956F82000884760782A4656F83E
:1035400020100848283000F08AFD60782A4656F896
:103550002010BDE8F0410348083000F080BDBDE810
:10356000F0810000B00F00200C487821C17001717B
:1035700041713C2181716421C1710121017241724B
:103580008172C172017821F0080141F007010170D8
:10359000042141703221817070470000A40F002087
:1035A00010B5FFF7A5FD0A4CA07838B101280ED15F
:1035B000FEF7F6FABDE81040FFF78ABF61780548CC
:1035C00050F8210008B1816888470120A07010BD23
:1035D000B00F00203C0E00200181704710B5114C47
:1035E00000200D2120706070A07061721022A27204
:1035F00020720D4AE2610D4A22620D4A626284F82D
:10360000291084F82A1084F828000A48E0630A4840
:1036100020640A486064FFF7A7FFA4F10C00606013
:1036200010BD0000B00F002041360008E53600084C
:1036300061360008B11B0008411C0008D91B0008B6
:1036400010B5054C0020E06004486061A07AFDF7E9
:103650005CFAA06110BD0000B00F0020000008C29D
:103660002DE9F0411D4D0C460746D5E90501FDF752
:103670000DFB30D11A4E6869B0422CD0FFF7B0FB79
:10368000012806D002280DD0032815D0042816D111
:1036900012E0B4F90800B4F90210884213DAE188A4
:1036A000084407E0B4F90800B4F9041088420ADDC0
:1036B000E188401A208106E00021AE6129720028CD
:1036C00009D0032807D07A68002A04D078782146E8
:1036D000BDE8F0411047BDE8F0810000B00F0020C8
:1036E000000008C22DE9FC41514C05466068007895
:1036F000C0070DD00020FFF731FD55210020FEF757
:10370000C3F9AA210120FEF7BFF90120FFF726FD2A
:10371000B5F90200B5F90460801BFDF7EDF9074625
:10372000B5F90800801BFDF7E7F93946FDF712F8F7
:103730004049FCF7DDFF206160684079FDF7E5F95D
:103740003B4902461031081FFEF7BCF9606840791A
:10375000FDF7DBF9364902461831081FFEF7B2F9CA
:103760000020FFF7FBFC6069FDF7E5F90226202742
:10377000CDE9007602B2617A66232F4800F0CBFAD9
:103780000120FFF7EBFC6069FDF7D5F9CDE9007684
:1037900002B2617A6623284800F0EBFA6069FDF70F
:1037A000CAF9143002B201270720CDE90007617A77
:1037B0005C232148491D00F0DCFAE068FDF7BBF905
:1037C00006B26069FDF7B7F9163002B20320CDE901
:1037D0000007617A33461848C91D00F09CFA6069F9
:1037E000FDF7A9F9801C02B2E8681023801C009044
:1037F000617A1148491D00F0D3FBB5F9080002F0C9
:10380000B7FD07466069FDF796F9801C06B2E868C7
:103810001021801CFEF7A7FF617A801D0144102350
:1038200032460548009700F0BBFBBDE8FC81000074
:10383000B00F00200000B0424803002010B5FFF791
:10384000DDF80348002140F8C01F0249416010BD67
:10385000DC0E00200000BC4238B5044604980090FD
:103860002046FFF7D5F8042020700348A0600348E5
:10387000E0600348206138BD3D380008A9380008E1
:103880008538000810B5FFF7EBF8064890F8BD1032
:10389000002905D0002180F8BB1000F8BA1FC170C4
:1038A00010BD0000DC0E00202DE9FC470446FFF7A8
:1038B000BDF9594840688079FDF727F95649024615
:1038C0001039081FFEF7FEF84FF000092020CDE95F
:1038D00000094D465E234A461821504800F049FA37
:1038E0001E20CDE900055C23012219214B4800F080
:1038F00040FA627DA169484E4FF0080808EB0210BB
:10390000D43E085A96F8BB105D2726F8110096F8A9
:10391000BB00401CC0B2B0FBF7F107FB1100B0FBCD
:10392000F7F107FB110186F8BB0096F8BA00814257
:1039300002D1401C86F8BA00C0B2B0FBF7F107FB19
:10394000110086F8BA0086F8BC00D4E90C01FDF736
:103950009DF95ED1D4E90801FDF798F959D1012507
:1039600096F8BB1096F8BC00814225D036F910209D
:10397000401CC0B2B0FBF7F107FB110086F8BC0099
:10398000617D0223A06903EB01134FF0040CC35EB9
:103990000CEB0111405E191A101A400190FBF1F076
:1039A000C0F1200002B205F118011C4800F0B0F986
:1039B0006D1CEDB25D2DD3D3627DA16908EB0210C1
:1039C000085E02F0D5FC04461821FEF7CCFEC0F1DB
:1039D0005E0101EBD170182101EB60011823242254
:1039E0000E48009400F0DCFA0220FFF7B7FBD6F88F
:1039F000C000FDF7A0F81D21CDE9001903B2232274
:103A00001821064800F087F9BDE8FC470120FFF7C0
:103A1000A5BBBDE8FC870000B00F002048030020D4
:103A20002DE9F05F06460A98934620380C46C0B24E
:103A3000082B51D00BF108010FB2102B02D0182B1C
:103A400060D11DE03149002501EB00185A4618F8F5
:103A500005302146304600F01DFB08EB05003A46D4
:103A6000037A2146304600F015FB641CB6F90400C9
:103A700024B2A04246DB6D1CEDB2082DE6D341E036
:103A8000234A0BF1100100EBC00000250FFA81FA68
:103A900002EB80085A4618F805302146304600F0FF
:103AA000F9FA08EB05093A4699F80C3021463046F8
:103AB00000F0F0FA99F8183052462146304600F0EE
:103AC000E9FA641CB6F9040024B2A0421ADB6D1CAA
:103AD000EDB20C2DDED315E00E4900EB40000025C1
:103AE00001EB40075A467B5D2146304600F0D2FA92
:103AF000641CB6F9040024B2A04203DB6D1CEDB2D5
:103B0000062DEFD32046BDE8F09F0000B28A0008E2
:103B1000A2900008788800082DE9FF5F8146DDE962
:103B20000E081E4692465FEA080156D0C11700EB08
:103B30005171C1F3C70721F00701401A00F0FF0BD4
:103B4000002522E000241CE00198B9F9041020446B
:103B5000884218DCB9F906200AEBC50191423CDC29
:103B6000109A08EB0403012A05FB06F215D0D25C7B
:103B7000D243D3B20AB201B2484600F08BFA641CB9
:103B8000E4B2B442E0DB6D1CEDB2BD42DAD3BBF16E
:103B9000000F22D00024FF251DE0D35CEAE7019846
:103BA000B9F904102044884217DC109907FB06F28B
:103BB000012908EB040112D0525C05FA0BF18A438B
:103BC000D143CBB20AEBC7010AB201B2484600F0BA
:103BD00061FA641CE4B2B442E1DBBDE8FF9F535CD0
:103BE00005FA0BF18B43EDE72DE9F0411F460D007F
:103BF000804600D50025B8F90400904200DA054659
:103C0000B8F90600B8420FDB002F0DDB0024561B6D
:103C100008E0281901B201233A46404600F03AFA7A
:103C2000641CE4B2A642F4DCBDE8F0812DE9F05F4B
:103C30000C460A9F1E4615468346A34236D0781B83
:103C4000311B90FBF1F0002800DC404201282FDA04
:103C5000A64202DDA046994603E03D469846A146AD
:103C60001746EE1BA9EB080A002E00DC7E1BCAEBF0
:103C7000460418E0014601232A46584600F00AFA95
:103C8000002C0ADDBD4201DA6D1C00E06D1E04EB64
:103C900046012DB2A1EB4A0401E004EB460408F111
:103CA00001000FFA80F84046C845E3DDBDE8F09F0B
:103CB000AF4202DD9046B94603E02646B84691463B
:103CC0001C46B44201DDA71B00E0371BA9EB080A24
:103CD000CAEB470518E0024601232146584600F08A
:103CE000D9F9002D0ADDB44201DA641C00E0641E3B
:103CF00005EB470124B2A1EB4A0501E005EB4705BE
:103D000008F101000FFA80F84046C845E3DDCDE731
:103D1000012300F0BFB92DE9F05F1F46DDE90A94E9
:103D200090468A4683462646B3EB440F1FDBB9EB29
:103D3000440F1CDB002518E008EB0900001B03B250
:103D400008EB040002B20AEB050001B2584600F08D
:103D500040F9B54201D2641EE4B2B81B401EA8422D
:103D600001DC641CE4B26D1CEDB2BD42E4DBBDE8D5
:103D7000F09F2DE9FF5F9346DDE90E6488462746F4
:103D8000B3EB440F39DBB6EB440F36DB002508EB11
:103D9000030930E015B1701E85420DD10BEB050013
:103DA00003B2A9EB0400401C02B208EB040001B20C
:103DB0000098FFF719FF12E00BEB050002B208EBC9
:103DC000040001B292460123009800F063F9A9EBC8
:103DD000040001B252460123009800F05BF9BD4295
:103DE00001D2641EE4B2F01B401EA84201DC641C38
:103DF000E4B26D1CEDB2B542CCDBBDE8FF9F000024
:103E00002DE9FF4F0646002081B0814683460446D7
:103E10000746009002980E9D9A464FF00108002830
:103E200071D026E0B4FBF5F005FB104048B944B171
:103E3000B8F1800F30D04FEA48604FEA1068781B25
:103E400087B20298C05D10EA080F0ED0B4FBF5F1FE
:103E500001EB0A0002B2B4FBF5F005FB1041039838
:103E6000084401B23046FFF753FF7F1C641CBFB209
:103E7000A4B24A4840888442D4D302981199C05DC4
:103E800000EA0800084378D0109806280ED2DFE830
:103E900000F00609252E3F3C4FF00108D1E7B6F9A6
:103EA000000020E0B6F9000026E08346009858B3F1
:103EB000B4FBF5F005FB1041039801444945B4FB00
:103EC000F5F101EB0A0003B2B4FBF5F005FB10417C
:103ED0000398084422DA01B24A4621E03088B188CA
:103EE0000844401E00B28146B6F90200DDE7308882
:103EF000B1880844401E00B281467088F1880844A9
:103F0000401E00B2D1E743E00EE0B6F9000003E046
:103F10003088B188084400B28146C9E702B24946F8
:103F20003046FFF761FE28E0B4FBF5F005FB1041D9
:103F30004945B4FBF5F110D001EB0A0002B2B4FB25
:103F4000F5F005FB104103984B46084401B230469A
:103F5000CDF800B0FFF76AFE0FE051445945B4FBBD
:103F6000F5F101EB0A0002DA02B25B4601E003B2AE
:103F70005A464946304600F02CF80F980749454309
:103F80006D1E4888854206DD129A10444880002044
:103F900005B0BDE8F08F01204880F9E72403002038
:103FA0002DE9F8431F4690460D460646089C0BE057
:103FB00000903B4642463046FFF732FD0146B6F9D7
:103FC0000400641CA84202DB20780028F0D1BDE880
:103FD000F8832DE9F04715000E46074602D5002B61
:103FE0003BDB0025B7F90600984200DA0346B7F933
:103FF0000400B04231DB002E2FDB581B4FF0FF0ACC
:10400000072805DA0AFA00F1C843C3B22A461EE0BF
:10401000C11700EB5171C1F3C708002421F007015B
:10402000401A00F0FF0909E005EBC40002B2FF23CB
:104030003146384600F02EF8641CE4B24445F3D310
:104040000AFA09F0C043C3B205EBC40002B231461C
:104050003846BDE8F04700F01DB8BDE8F08770B500
:10406000044600780E4600F00300154601280AD0E9
:1040700002280DD1A1691046884729463046E269D9
:10408000BDE87040104761693046884702202070C3
:1040900070BD00002DE9F0410446B0F904000D4662
:1040A000A84244DBB4F90600904240DB002D3EDB21
:1040B00012F1070F3BDD411ED61DB14203DA811A12
:1040C000FF2088408343901D04D35042C340B4F97D
:1040D000020002E0B4F902001044C11700EB517174
:1040E000C1F3C70621F00701401A10F0FF0003FAE0
:1040F00000F101F0FF0CC0F1080123FA01F70D49AE
:1041000020880A78284400B20FD08846634631469A
:10411000FDF714FD208898F80020284400B23B46A3
:10412000711CBDE8F041FDF709BD3146F9E7BDE876
:10413000F08100002403002010B50446FEF77EFB4A
:104140007820FEF749FB0020FEF746FB2046FEF7ED
:1041500043FBBDE81040FEF78DBB10B50446FEF7EB
:104160006DFB7820FEF738FB4020FEF735FB20463C
:10417000FEF732FBBDE81040FEF77CBB2DE9F041B5
:1041800025A1FCF745F807004FF0FF3636D0FCF7C5
:104190005DF80546401C01F093F9040030D02A4632
:1041A0003946FCF747F800206055204601F02EFF05
:1041B000050029D019A101F01BFF074619A12846C7
:1041C00001F016FF064618A1284601F011FF3969D3
:1041D0007769466917A000F0F5FC394618A000F091
:1041E000F1FC314616A000F0EDFC284601F0DCFEA3
:1041F000204601F087FF0120BDE8F08113A000E018
:104200001EA000F0DFFC05E023A000F0DBFC204650
:1042100001F078FF3046EFE77B0000006E616D65CE
:10422000000000006167650069735F72756E6E69FA
:104230006E6700004E616D653A202573200D0A00FF
:104240004E616D653A202564200D0A004A534F4E99
:104250002064617461206E6F7420666F756E6420D7
:10426000696E20746865207265636569766564208F
:10427000737472696E672E0A000000004D656D6FE1
:10428000727920616C6C6F636174696F6E20666116
:10429000696C65642E0A00004661696C656420746F
:1042A0006F207061727365204A534F4E20646174B1
:1042B000612E0A00044A0029516901D0014300E03F
:1042C000814351617047000000100240044A0029F8
:1042D000D16901D0014300E08143D1617047000002
:1042E00000100240044A0029916901D0014300E016
:1042F00081439161704700000010024030B5204AB0
:104300005168204B11F00C0103D0042901D0082979
:1043100001D0036012E05168536801F470114FF04E
:10432000020413F4803F04EB914102D053689B03D5
:1043300001D5154B00E0134B5943016051680F2321
:1043400003EA1111114B5C5C0168E1404160546863
:10435000072505EA14241C5D21FA04F484605468DE
:1043600005EAD4241B5DD940C1605268032303EAE7
:104370009232064B1B1F9A5CB1FBF2F1016130BD1A
:104380000010024000127A0000093D0004000020E5
:104390000CB50022264800920192016841F4803158
:1043A00001604FF4A063016801F4003101910099AC
:1043B000491C0091019911B900999942F3D1016802
:1043C000890333D5012101911A490A6842F010028C
:1043D0000A600A6822F003020A600A6842F00202D8
:1043E0000A604168416041684160416841F4806110
:1043F0004160416821F47C114160416841F4E81159
:104400004160016841F08071016001688901FCD55B
:10441000416821F003014160416841F002014160BF
:104420004168C1F381010229FAD10CBD01920CBD92
:10443000001002400020024010B51B480B780278A3
:104440000D2B0AD2DFE803F009070A0D1013161925
:104450001D21252A2D00097AC17010BD097A01712C
:1044600010BD097A017210BD097A417210BD097A36
:10447000817210BD097AC17210BD097A61F3000220
:104480000AE0097A61F3410206E0097A61F38202E7
:1044900002E0097A61F3C302027010BD097A41702B
:1044A00010BD097A817010BDA40F002003F008BC74
:1044B0000F4810B5016841F00101016041680D4AE3
:1044C0001140416001680C4A11400160016821F40B
:1044D00080210160416821F4FE0141604FF41F0119
:1044E0008160FFF755FF05494FF00060086010BD7F
:1044F000001002400000FFF8FFFFF6FE08ED00E0AC
:1045000010B5074C0121204600F058F8002805D0CE
:104510002046BDE81040012100F043B810BD000066
:10452000002C014010B501218C07204600F046F810
:10453000002805D02046BDE81040012100F031B828
:1045400010BD000010B5104C0121204600F036F8D7
:10455000002818D00121204600F023F80BA000F01D
:1045600031FB0D480088012809D0022801D003281A
:1045700009D1FDF7CFF9BDE81040FDF709BABDE854
:104580001040FDF7A3B910BD0004004031323334B0
:104590003536370A0000000028000020C943018298
:1045A0007047C943018270470029018802D041F059
:1045B000010101E021F00101018070470246002065
:1045C000138A92890B4202EA010202D0002A00D02B
:1045D00001207047002A828901D00A4300E08A4303
:1045E0008281704730B502881B4C1C4DA0420DD013
:1045F000A8420BD0B0F1804F08D0194B984205D09B
:10460000184B984202D0184B984203D122F0700305
:104610004A881A43154B984206D0154B984203D04E
:1046200022F44073CA881A4302808A8882850A88E5
:104630000285A0420AD0A84208D00E4A904205D076
:104640000D4A904202D00D4A904201D1097A01866A
:104650000121818230BD0000002C01400034014066
:104660000004004000080040000C00400010004022
:104670000014004000400140004401400048014057
:1046800010B586B0FEF70EF9FDF78AFAFEF730FD99
:104690000120FEF763FDFEF7A1FF3D4A3D48D178BA
:1046A0000183137903850187A0F84830A0F85810DA
:1046B000A0F86830117801F00103A0F87830C1F358
:1046C0004003A0F88830C1F38003A0F89830C1F30C
:1046D000C001A0F8A8105178A0F8B8109178A0F8FF
:1046E000C8102D492D482B4BCDE90001803B0522F8
:1046F00000212B48FEF75AFD01200024CDE90004DB
:104700000146244B2648303B04224430FEF7B4FBDC
:104710002448009022481F4B0D2202216C30FEF7E6
:1047200077F91C4B1E48D03302220321AC30009491
:10473000FFF792F81C483221CDE9031015482D22CD
:1047400088388DE8150000F5BC7215480223042155
:10475000EC30FDF7D9FB15480090154B03220521DD
:104760001448FEF755F9124B12483033092206213E
:1047700040300094FEF780FC0D4B0E48C0330822F9
:10478000072180300094FEF777FC06B010BD0000D2
:10479000A40F0020C000002095180008B083000876
:1047A0003C07002039440008F91700083D140008B0
:1047B000E00100207C08002070B5FEF7F1FE1648ED
:1047C000B0F90200FCF7A6F9144C05460E46B4F900
:1047D0000000FCF79FF9124A124BFCF7ACF802F00C
:1047E0000FFF2A463346FCF7A6F800220E4BFCF7D3
:1047F000A2F8FCF7CDF901B20748FEF7EDFEB4F9D7
:10480000000000F049F8014604F5B870FEF7E4FE38
:104810002088401C208070BD9001002030000020C6
:104820009A9999999999B93F0000E83F1FB50121DC
:10483000C802FFF757FD44F61F60ADF8040041F6CB
:104840001F40ADF800000020124CADF80600ADF896
:1048500002008DF8080069462046FFF7C3FE0121DB
:104860002046FFF79BFE012241212046FFF7B2FEC2
:1048700019208DF80C0001218DF80D108DF80E1007
:104880008DF80F1003A8FDF7C3F801212046FFF7AC
:104890008BFE1FBD002C0140142190FBF1F201FBA7
:1048A00012030A4AA2F5B071B2F9140043B1B2F989
:1048B0001220101A262290FBF2F04A88104402E0DF
:1048C00000EBD0704010488000B27047900100208B
:1048D0002DE9F047394C40F225584146204600F07A
:1048E000DDF9374D374E70B14146204600F0B7F93B
:1048F000204600F061FA6978C0B20122D1B10129E5
:1049000021D0022926D06878032811D128780027E1
:1049100006EB400030F8020C4F2826D06F702F7045
:1049200000204FF4967126F81070401C8842FADB84
:10493000BDE8F0874428FBD16A70297826F8110079
:10494000491C2970F4E72128F2D1022169702978E5
:1049500026F81100297826F81100491C29704F28E3
:10496000E6D103206870AA70D0E70022C246414613
:10497000A146204600F0B1F9A878A8B129781248DC
:10498000491C00240180804608E008EB440036F80A
:10499000141041800DA000F015F9641C28788442A1
:1049A000F3DB0BA000F00EF9AF702F706F70514663
:1049B0004846BDE8F047012200F08FB900380140B9
:1049C0002A0000203C060020E403002025630000AC
:1049D0000A00000010B5012186B08803FFF782FCB1
:1049E00001210420FFF77EFC4FF40070ADF81000A9
:1049F00003208DF812001820204C8DF8130004A914
:104A00002046FCF7A5FE2115ADF8101004218DF805
:104A1000131004A92046FCF79BFE25208DF81400F6
:104A200000248DF8154001208DF816008DF8170030
:104A300005A8FCF7EDFF4FF41650ADF804400090C8
:104A4000ADF80640ADF80840ADF80C400C200C4C19
:104A5000ADF80A006946204600F058F9012240F2FC
:104A60002551204600F039F90121204600F0FDF8DB
:104A70004021204600F0F0F806B010BD00080140CB
:104A80000038014070B50E4D40F2244421462846BE
:104A900000F004F9002812D00A48FCF7D3FDC0F159
:104AA0008002094801880A4442F440410180281DDF
:104AB000008821462846BDE8704000F0D0B870BD9F
:104AC000004400406C00024020030020F0B507467F
:104AD00091B001210420FFF705FC01214804FFF7F4
:104AE000F5FB01210846FFF7E5FB0820ADF83C0087
:104AF000304E04248DF83F400FA93046FCF728FEC5
:104B0000ADF83C4003258DF83E5018208DF83F004D
:104B10000FA93046FCF71CFE0024ADF834400C20F1
:104B2000254EADF83040ADF836000B97ADF8324069
:104B3000ADF838400BA9304600F0E8F8012240F209
:104B40002441304600F0C9F801224021304600F0EF
:104B500096F826208DF840008DF841508DF842508F
:104B600001208DF8430010A8FCF752FF134D284692
:104B7000FCF7F6FC301D00901148CDE901048021BE
:104B8000CDE90314CDE905142020CDE907404FF409
:104B90004050CDE9090469462846FCF756FD01213D
:104BA0002846FCF7D2FC0121304600F05EF811B037
:104BB000F0BD000000080140004400406C000240CD
:104BC0003C0900200FB4812170B5A2B0002427ABAE
:104BD0006846269A00F00EF90C4D6E460DE0315DE8
:104BE000641CE4B2284600F0EBF84021284600F0AF
:104BF0004EF80028F9D0802C04D26846FBF726FB3B
:104C0000A042ECD822B070BC5DF814FB0044004018
:104C100070B50E4D40F224442146284600F03EF87F
:104C2000002812D00A48FCF70DFDC0F180020948A7
:104C300041880A4442F440414180281D00882146B1
:104C40002846BDE8704000F00AB870BD004800403A
:104C50003000024020030020C943018070470A0A47
:104C600001219140C943018070470029818902D008
:104C700041F4005101E021F4005181817047002A84
:104C8000828A01D00A4300E08A438282704702464A
:104C9000002012880A4200D00120704770B501F050
:104CA0001F0501260024C1F3421306FA05F2012B69
:104CB0000FD0022B0FD0838A4FEA112100881342B4
:104CC00006FA01F600EA060001D000B101242046F0
:104CD00070BD8389F0E7038AEEE710B5C1F3421394
:104CE00001F01F040121A140012B07D0022B07D0A6
:104CF0001430002A026805D00A4304E00C30F8E7BB
:104D00001030F6E78A43026010BD000030B504465B
:104D1000008A85B00D464CF6FF710840E9880143D2
:104D20002182A0894EF6F3110840A9882A891143EF
:104D30006A8902431143A181A08A4FF6FF410840CE
:104D4000A9890143A1826846FFF7D8FA194884422D
:104D500001D1039800E00298A189090400EBC00189
:104D600001EB0010296801D5490000E08900B0FB83
:104D7000F1F06422B0FBF2F109010B096FF01805A4
:104D80006B4300EB8300A3891D044FF0320306D56B
:104D900003EBC000B0FBF2F000F0070005E003EB0E
:104DA0000010B0FBF2F000F00F000843208105B0C6
:104DB00030BD0000003801408088C0F30800704713
:104DC000C1F3080181807047FEE700000FB4084B73
:104DD00010B504A902AA039800F08CFC044602A9AD
:104DE000002001F029F8204610BC5DF814FB0000FB
:104DF000395E00087CB5044600201D461646002991
:104E00000BD0491ECDE90041044B6A462946304685
:104E100000F070FC009A002111707CBD235E000838
:104E2000490050EAC12018BF04204A0D18BF40F0C5
:104E3000010040F2FF72B2EB515F08BF40F0020088
:104E4000012808BF0520704730B528B1144C031F56
:104E5000002021680A4605E0084630BD9A4203D882
:104E600010465268002AF9D1002800D041680BD0C2
:104E70000468A3EB0005A54204D11B681C4403464B
:104E8000046002E0436000E023603AB11C68D51A78
:104E9000A54203D115682C441C6052685A6030BD8D
:104EA000D80300202DE9F74F144694B00021C4E93F
:104EB00002111599079121F00045C9498D4206DC80
:104EC0001599C4E9000117B00020BDE8F08FC5496D
:104ED000DFF814A3A9423CDD0799C44E0029C44F52
:104EE000C44A1599534619DDFBF71FFD554506D0F9
:104EF000C14AC24BFBF719FDC4E900010AE04FF0BB
:104F0000D352BE4BFBF711FD32463B46FBF70DFD7E
:104F1000C4E9000117B00120BDE8F08FFBF764FC85
:104F2000554506D0B44AB54BFBF75EFCC4E9000119
:104F30000AE04FF0D352B14BFBF756FC32463B46EA
:104F4000FBF752FCC4E9000117B04FF0FF30BDE899
:104F5000F08FAB49A942159978DB21F000418346D7
:104F60008846A84AA84BFBF7E6FC0022A74BFBF7B4
:104F70003BFCFBF70DFE0990FBF7CCFD06460F4608
:104F80009C4A5346FBF7D7FC43465A46FBF7D0FCF6
:104F900080468A46984A994B30463946FBF7CBFC07
:104FA0002A0D01250B9242465346FBF7C1FC032D07
:104FB000C4E9000139D00B98C1F30A51401A05EB3E
:104FC00045111139814230DA9148C346784400EBEB
:104FD0000510CDF80CA00C90D0E9002330463946DE
:104FE000FBF7A9FC02460B4604910690584603992C
:104FF000FBF79BFC80468A4602460B4658460399BF
:10500000FBF793FC049B069AFBF78FFC83460C98F6
:1050100003913946D0E902233046FBF78CFC5A460F
:10502000039BFBF782FC6D1CBDE707980028A2BF1D
:10503000099817B0BDE8F08F616881F000416160A8
:10504000099817B04042BDE8F08FFFE784461598F5
:10505000C1F31301C0F30A50A0F2F5304FEA601813
:1050600000F01F06C6F12000139000200690079064
:1050700041F4801E05206D4676B1664A08EB0001BA
:105080007A4452F8213002EB8101B3404A68139907
:1050900022FA01F1194305E05F4908EB0002794467
:1050A00051F82210A1FB0E27A1FB0C131A449A42BF
:1050B00034BF0123002303EB070A05EB8003D3E988
:1050C00001B70F448F4234BF0121002193448B4428
:1050D00011B1934502D903E0934501D2012100E0CB
:1050E0000021C3E901B7514445F82010011EA0F189
:1050F0000100C1DC0298059F00F10050800F129062
:105100000298DDE903568000FBF704FD834628463C
:105110000D91FCF746F96FF01D02FCF72BF9CDE974
:105120000E013046FCF73DF96FF03D02FCF722F925
:1051300080468A463846FCF734F96FF05D02FCF78A
:1051400019F90746424653461191FBF74DFBDDE93D
:105150000E23FBF749FB5A460D9BFBF745FB002549
:105160000E465A4628460D9BFBF7DFFBDDE90E2372
:10517000FBF7DBFB42465346FBF7D7FB3A46119B56
:10518000FBF7D6FBDFF898A0244A5346FBF7D3FB86
:1051900007468846234A244B31462846FBF7CBFB7B
:1051A0003A464346FBF720FB074688464FF0A842A5
:1051B000534631462846FBF7BEFB3A464346FBF7CB
:1051C00013FB159A12F0004F04D0129A81F000419F
:1051D00052421292C4E90001129817B0BDE8F08F54
:1051E000FB21E93F7CD90240FB21F93F7370032E7C
:1051F0008A19A33B000040543163621A61B4D03D68
:10520000FB21394183C8C96D305FE43F0000E03FB6
:10521000604E0000DC4D0000BE4D0000182D4454CF
:10522000FB21F93D3326A611460B113C2DE9FF4D1C
:1052300021F0004807460C46B8F1795F08DAFBF721
:10524000A7FC002801BF0020324904B0BDE8F08D62
:105250003A46234610461946FBF76DFB05460246C3
:105260002D480E460B460621784400F05DF82A468C
:105270003346FBF760FBDDE9022382468B46384666
:105280002146FBF758FB04460F4652465B4628462C
:105290003146FBF750FB22463B46FBF746FB0746F1
:1052A0008A464FF0FF3228463146FCF763F81B4A26
:1052B00090450ADA3A465346FBF737FB04B0002222
:1052C000BDE8F04D134BFBF733BB154A4245A8BF71
:1052D000A8F500154FF00004B8BF124D22462B462A
:1052E000FBF723FB0646884622462B460020094949
:1052F000FBF71BFB04460D463A46534630464146F3
:10530000FBF713FB04B022462B46BDE8F04DFBF73C
:105310000FBB00000000F03F944B00003333D33F3D
:105320000000E93F0000D23F2DE9F0414F1E00EBA5
:10533000C7010446D1E9000115461E4637F00602B2
:105340000DD02A463346FBF7F6FA7F1E04EBC7035F
:10535000D3E90023FBF748FA37F00602F1D1022F18
:1053600025D0042F13D0062F18BFBDE8F0812A46A0
:105370003346FBF7E0FAD4E90A23FBF735FA2A466D
:105380003346FBF7D8FAD4E90823FBF72DFA2A466F
:105390003346FBF7D0FAD4E90623FBF725FA2A4671
:1053A0003346FBF7C8FAD4E90423FBF71DFA2A4673
:1053B0003346FBF7C0FAD4E90223FBF715FA2A4675
:1053C0003346FBF7B8FAD4E90023BDE8F041FBF718
:1053D0000BBA00002DE9FF4D054621F0004084B0D6
:1053E0000C46B0F1795F0BDA2846FFF719FD042867
:1053F00008BF00F097F8284608B02146BDE8F08DB8
:105400002A460B461046FBF796FA06460F462A46F2
:105410002346FBF790FA804626488A4632463B46AA
:1054200005217844FFF780FF83461098029160B30E
:10543000214A224B40465146FBF77DFACDE9000157
:105440005A4640465146029BFBF775FA824688460B
:10545000DDE906014FF0FF32FBF78CFF5246434671
:10546000FBF763FA32463B46FBF765FADDE90623B4
:10547000FBF75BFADDE90023FBF757FA08B02A4691
:105480002346BDE8F04DFBF753BA0B465A4630466B
:105490003946FBF750FA084A084BFBF7A5F9424694
:1054A0005346FBF748FA08B02A462346BDE8F04DBC
:1054B000FBF79AB9D24A0000495555555555C5BF15
:1054C0002DE9F04782460F4C10480D4E0E4F001B41
:1054D0004FF0000820F007054FF0010900221146A7
:1054E000504600F01DFF002802D1306810B10020A6
:1054F000BDE8F0873C60C4E90058C6F80090EDE7CD
:10550000DC030020EC320020D8030020E84A002011
:105510000122FBF72FBF0022134610461146FBF76E
:105520007CBA0000024A00201107FBF723BF0000ED
:1055300001FDFFFF02E008C8121F08C1002AFAD1CE
:1055400070477047002001E001C1121F002AFBD103
:10555000704700000149086070470000E003002028
:105560002DE9FF5F82B00021DDE90430020DDDF896
:1055700040B0034318D044F61050A2F2FF32424329
:105580001514119801281FD0A5EB0B00401C5FEAF1
:10559000000A4FF000064E4FDFF83891B0465046F3
:1055A00015D5CAF1000413E0119801244AA301287B
:1055B00001D16FEA0B010298119AC0E90031C0E9EC
:1055C000024206B0BDE8F09FCBF10000DFE70446E1
:1055D0000021404A491842EB0450CDE9001012E086
:1055E000E00707D032463B4640464946FBF7A3F961
:1055F0008046894632463B4610461946FBF79BF9E2
:1056000006460F466410002CEAD1DDE90401DDE90D
:105610000023BAF1000F06DAFBF78DF942464B463C
:10562000FBF789F905E0FBF7F8F942464B46FBF733
:10563000F4F904460E460022284BFBF7F3FA03D890
:105640004FF0FF30014607E00022254B204631464F
:10565000FBF7CAF8FBF7C8FC102409E0002C0ADBB2
:105660000A220023FBF73CFB039B30321A55641ED1
:1056700050EA0102F2D1641C039AC4F111031444EC
:10568000119A012A03D0012208430DD10AE00843F0
:1056900004D000204FF0110B119072E7A3EB0B0523
:1056A0006D1E0DE05B4504DD4FF0000205F10105C4
:1056B00004E003DA4FF00002A5F10105002AECD066
:1056C00002981199C0E90231C0E9004579E700006C
:1056D000000014400000F03F300000000000F043E4
:1056E0000000E03F30380A2801D201207047002036
:1056F000704700002DE9FF4F95B09B46894606464E
:1057000000250FE2252877D100242746F84A0121F9
:10571000059400E0044316F8013F203B01FA03F032
:105720001042F7D130782A2811D06FF02F0330784B
:10573000A0F13002092A16D8059A44F0020402EBBF
:10574000820203EB42021044761C0590EFE759F801
:10575000042B0592002A03DA504244F400540590C9
:1057600044F00204761C30782E2816D116F8010F6A
:1057700044F004042A280DD06FF02F023078A0F1F5
:105780003003092B09D807EB870302EB4303C71843
:10579000761CF3E759F8047B761C30786C280FD020
:1057A00006DC4C2817D068280DD06A2814D104E0F4
:1057B000742810D07A280FD10DE044F400140AE0C8
:1057C00044F4801401E044F440147278824202D11F
:1057D00004F58014761C761C307866280BD013DC18
:1057E000582877D009DC002875D04528F6D04628FF
:1057F000F4D047281AD19DE118E0632835D06428F9
:1058000079D0652812D195E1702873D008DC67281B
:10581000F1D069286FD06E280DD06F2806D1B5E081
:1058200073282CD0752875D0782874D05A461799CB
:1058300090476D1C75E1C4F30250022809D003287B
:105840000DD0D9F8001004280DD00D6009F104091D
:1058500067E1D9F80010EA17C1E90052F6E7D9F874
:1058600000100D80F2E70D70F0E719F8041B8DF8B9
:10587000001000208DF80100EA46012003E059F8ED
:1058800004AB4FF0FF3061074FF0000102D40DE090
:1058900008F101018846B9420FDA8045F8DB1AF8B1
:1058A00008100029F4D108E008F10101884681427E
:1058B000FADB1AF808100029F6D105985B46A0EB30
:1058C000080721463846179A00F094FA284400EB5E
:1058D000080507E04DE029E10DE01AF8010B5A46F2
:1058E00017999047B8F10108F7D25B462146384630
:1058F000179A13E142E00A220092C4F302524FF0D9
:10590000000A022A08D059F804CB032A4FEAEC71A6
:105910000AD00DE029E02AE009F1070121F0070291
:10592000F2E802C1914609E00FFA8CFC4FEAEC71F3
:10593000042A03D14FFA8CFC4FEAEC71002907DAF4
:105940000A460021DCF1000C61EB02012D2202E08D
:10595000220504D52B228DF80420012203E0E20762
:1059600001D02022F7E7904659E00A2102E01022F8
:105970000DE010214FF0000A00910BE010224FF0D3
:10598000000A44F004040827009203E008224FF0C4
:10599000000A0092C4F30252022A05D059F804CB3F
:1059A0000021032A08D009E009F1070121F00702CC
:1059B000F2E802C1914605E01FFA8CFC042A01D1ED
:1059C0000CF0FF0C4FF00008220728D5702806D0F5
:1059D000009B83F0100353EA0A0305D00EE0402237
:1059E0008DF80420012208E05CEA010206D0302292
:1059F0008DF804208DF8050002229046009B83F06C
:105A0000080353EA0A030AD15CEA010201D16207E2
:105A100005D530228DF804204FF001087F1E58284C
:105A200004D034A003900EA802900DE036A0F9E750
:105A300053466046009AFBF753F984460398825C0C
:105A40000298401E029002705CEA0100F0D10298B8
:105A500006A9081A00F1200A600702D524F4803450
:105A600000E00127574502DDA7EB0A0000E0002017
:105A700000EB0A01009005984144401A0590E003AC
:105A800006D45B462146179A059800F0B3F9054401
:105A9000002706E001A85A46C05D179990476D1C83
:105AA0007F1C4745F6DBE0030CD55B462146179A81
:105AB000059800F09FF9054404E030205A461799F4
:105AC00090476D1C0099481E00900029F5DC08E005
:105AD000029802995A460078491C029117999047FA
